:020000040000fa
:080000000002040000000000f2
:020000040000fa
:04000800d60300001b
:020000040000fa
:04000c00d603000017
:020000040000fa
:04001000d603000013
:020000040000fa
:04001400d60300000f
:020000040000fa
:04001800d60300000b
:020000040000fa
:04001c00d603000007
:020000040000fa
:04002000d603000003
:020000040000fa
:04002400d6030000ff
:020000040000fa
:04002800d6030000fb
:020000040000fa
:04002c00d6030000f7
:020000040000fa
:04003000d6030000f3
:020000040000fa
:040034003003000095
:020000040000fa
:04003800d6030000eb
:020000040000fa
:04003c00d6030000e7
:020000040000fa
:04004000d6030000e3
:020000040000fa
:04004400d6030000df
:020000040000fa
:040048002803000089
:020000040000fa
:04004c00d6030000d7
:020000040000fa
:04005000d6030000d3
:020000040000fa
:040054007a0300002b
:020000040000fa
:04005800ac030000f5
:020000040000fa
:04005c00fa020000a4
:020000040000fa
:04006000d6030000c3
:020000040000fa
:04006400d6030000bf
:020000040000fa
:04006800d6030000bb
:020000040000fa
:04006c00d6030000b7
:020000040000fa
:04007000d6030000b3
:020000040000fa
:04007400d6030000af
:020000040000fa
:04007800d6030000ab
:020000040000fa
:04007c00d6030000a7
:020000040000fa
:04008000d6030000a3
:020000040000fa
:04008400d60300009f
:020000040000fa
:04008800d60300009b
:020000040000fa
:04008c00d603000097
:020000040000fa
:04009000d603000093
:020000040000fa
:040094005003000015
:020000040000fa
:04009800d60300008b
:020000040000fa
:04009c00d603000087
:020000040000fa
:0400a000d603000083
:020000040000fa
:0400a400d60300007f
:020000040000fa
:0400a800d60300007b
:020000040000fa
:0400ac00d603000077
:020000040000fa
:0400b000d603000073
:020000040000fa
:0400b400d60300006f
:020000040000fa
:0400b800d60300006b
:020000040000fa
:0400bc00d603000067
:020000040000fa
:0400c000d603000063
:020000040000fa
:0400c400d60300005f
:020000040000fa
:0400c800d60300005b
:020000040000fa
:0400cc00d603000057
:020000040000fa
:0400d000d603000053
:020000040000fa
:0400d400d60300004f
:020000040000fa
:0400d800d60300004b
:020000040000fa
:0400dc00d603000047
:020000040000fa
:0400e000d603000043
:020000040000fa
:0400e400d60300003f
:020000040000fa
:0400e800d60300003b
:020000040000fa
:0400ec00d603000037
:020000040000fa
:0400f000d603000033
:020000040000fa
:0400f400d60300002f
:020000040000fa
:0400f800d60300002b
:020000040000fa
:0400fc00d603000027
:020000040000fa
:04010000d603000022
:020000040000fa
:04010400d60300001e
:020000040000fa
:04010800d60300001a
:020000040000fa
:04010c00d603000016
:020000040000fa
:04011000d603000012
:020000040000fa
:04011400d60300000e
:020000040000fa
:04011800d60300000a
:020000040000fa
:04011c00d603000006
:020000040000fa
:04012000d603000002
:020000040000fa
:04012400d6030000fe
:020000040000fa
:04012800d6030000fa
:020000040000fa
:04012c00d6030000f6
:020000040000fa
:04013000d6030000f2
:020000040000fa
:04013400d6030000ee
:020000040000fa
:04013800d6030000ea
:020000040000fa
:04013c00d6030000e6
:020000040000fa
:04014000d6030000e2
:020000040000fa
:04014400d6030000de
:020000040000fa
:04014800d6030000da
:020000040000fa
:04014c00d6030000d6
:020000040000fa
:04015000d6030000d2
:020000040000fa
:04015400d6030000ce
:020000040000fa
:04015800d6030000ca
:020000040000fa
:04015c00d6030000c6
:020000040000fa
:04016000d6030000c2
:020000040000fa
:04016400d6030000be
:020000040000fa
:04016800d6030000ba
:020000040000fa
:04016c00d6030000b6
:020000040000fa
:04017000d6030000b2
:020000040000fa
:04017400d6030000ae
:020000040000fa
:04017800d6030000aa
:020000040000fa
:04017c00d6030000a6
:020000040000fa
:04018000d6030000a2
:020000040000fa
:04018400d60300009e
:020000040000fa
:04018800d60300009a
:020000040000fa
:04018c00d603000096
:020000040000fa
:04019000d603000092
:020000040000fa
:04019400d60300008e
:020000040000fa
:04019800d60300008a
:020000040000fa
:04019c00d603000086
:020000040000fa
:0401a000d603000082
:020000040000fa
:0401a400d60300007e
:020000040000fa
:0401a800d60300007a
:020000040000fa
:0401ac00d603000076
:020000040000fa
:0401b000d603000072
:020000040000fa
:0401b400d60300006e
:020000040000fa
:0401b800d60300006a
:020000040000fa
:0401bc00d603000066
:020000040000fa
:0401c000d603000062
:020000040000fa
:0401c400d60300005e
:020000040000fa
:0401c800d60300005a
:020000040000fa
:0401cc00d603000056
:020000040000fa
:0401d000d603000052
:020000040000fa
:0401d400d60300004e
:020000040000fa
:0401d800d60300004a
:020000040000fa
:0401dc00d603000046
:020000040000fa
:0401e000d603000042
:020000040000fa
:0401e400d60300003e
:020000040000fa
:0401e800d60300003a
:020000040000fa
:0401ec00d603000036
:020000040000fa
:0401f000d603000032
:020000040000fa
:0401f400d60300002e
:020000040000fa
:0401f800d60300002a
:020000040000fa
:0401fc00d603000026
:020000040000fa
:04020000d603000021
:020000040000fa
:04020400d60300001d
:020000040000fa
:04020800d603000019
:020000040000fa
:04020c00d603000015
:020000040000fa
:04021000d603000011
:020000040000fa
:04021400d60300000d
:020000040000fa
:04021800d603000009
:020000040000fa
:04021c00d603000005
:020000040000fa
:04022000d603000001
:020000040000fa
:04022400d6030000fd
:020000040000fa
:04022800d6030000f9
:020000040000fa
:04022c00d6030000f5
:020000040000fa
:04023000d6030000f1
:020000040000fa
:04023400d6030000ed
:020000040000fa
:04023800d6030000e9
:020000040000fa
:04023c00d6030000e5
:020000040000fa
:04024000d6030000e1
:020000040000fa
:04024400d6030000dd
:020000040000fa
:04024800d6030000d9
:020000040000fa
:04024c00d6030000d5
:020000040000fa
:04025000d6030000d1
:020000040000fa
:04025400d6030000cd
:020000040000fa
:04025800d6030000c9
:020000040000fa
:04025c00d6030000c5
:020000040000fa
:04026000d6030000c1
:020000040000fa
:04026400d6030000bd
:020000040000fa
:04026800d6030000b9
:020000040000fa
:04026c00d6030000b5
:020000040000fa
:04027000d6030000b1
:020000040000fa
:04027400d6030000ad
:020000040000fa
:04027800d6030000a9
:020000040000fa
:04027c00d6030000a5
:020000040000fa
:04028000d6030000a1
:020000040000fa
:10040000cf0c21000eff2c000e0188000000000020
:10041000000020000000e000020032000001200087
:100420002002880014000700e20007000000e0003e
:1004300003003a0060532100010020000200370051
:100440000000200001002000810f70000100320038
:100450000f000700000020000000e0000200320052
:100460000000020000000000680702000000000019
:100470000040da000000fe00200020000000e00044
:1004800002003200100020009001880000000600e9
:10049000a1028800800478000000eb001f003700f4
:1004a000e284440054a0b4009905ba00e2844400f8
:1004b00054a0b4009906ba00e284440054a0b400e9
:1004c0000006eb00476fde00fd07b200ae018800ba
:1004d000636ce10003003a000ad801000000eb0061
:1004e0000e003700606ce10008003a00004deb00a0
:1004f0000a05e800020039003420ec000af0a000f0
:100500008b05e900f9ff3e00040037006168e10057
:10051000010032000086eb000b00070019c7ba008b
:100520000e04e0001905ba0003003a000a00e000da
:10053000dbff3a0000000600fe07b200ae028800b2
:100540008a047800f5ff37000cd0a300e20f4d00bd
:100550001c00390089027800354dba000a05e80010
:10056000020039003420ec000af0a0008b05e900fd
:100570000f003200254dba000a05e80002003900dc
:100580003420ec000af0a0008b05e90008003200de
:100590000c00e0000600320015cdba000a05e800a4
:1005a000020039003420ec000af0a0008b05e900bd
:1005b0008984e80054a0b4000b00e000e2ff3a0098
:1005c000000006009902ba00055d78008b05e9007d
:1005d000f7ff3200c82ade00055d78008b05e900d0
:1005e000f3ff32000c00e000f1ff320019ddba0029
:1005f000eeff3700809fbe000000fa0001a8a900ae
:1006000001188000200021000108780011188000e6
:1006100020002100110098002118800020002100f6
:10062000210098003118800020002100310098003e
:1006300041188000200021004100980010c0b30044
:100640000af0b7000080fa004f00be00004006002c
:100650000000fa000108a9000080fa00004006002e
:100660003600f800809fbe00829fbe00849fbe00bf
:10067000869fbe000000fa000068a9008a060700f5
:100680006b0807000080fa004f03be004f02be0057
:100690004f01be004f00be003600f90000400600ca
:1006a0003600f800809fbe00829fbe00849fbe007f
:1006b000869fbe000000fa000368a900d080800079
:1006c000e180800061004000e0804800d080880028
:1006d000e18088001c0307000080fa004f03be0081
:1006e0004f02be004f01be004f00be003600f900b1
:1006f00000400600801f78000000fa000168a90091
:1007000010118000640060000000e0000100320071
:100710002242a90010118000620060000000e00089
:10072000050032002222a9000400370030118000a9
:100730002011880001003700000000001011800027
:10074000610060000000e000f8ff3a000080fa005d
:100750004f007800004006003600f800809fbe0081
:10076000829fbe00849fbe00869fbe000000fa00ec
:100770000188a90001818000f0808000808f5000f6
:1007800002003200cc070700010037002270ef00a2
:100790000080fa004f03be004f02be004f01be00b2
:1007a0004f00be003600f900004006000040da00ad
:1007b0000000fe000000050003f0a200889fbe00bc
:1007c0008a9fbe008c1f78001b01070022013300a6
:1007d0006450e1004f0032006420e100520032001a
:1007e00003826c0007003b000905d0000306d0001f
:1007f000820f54000c065d00020039000200320036
:1008000089017800030678008582550004003d00c8
:100810000003fd008103fd008502ea008b85420094
:10082000840f720002003b0060001000e08018009e
:100830006011b8000005eb007a28e1000a003900d9
:1008400006007800c75ddd00f707b20087807500fd
:100850002d003700828171000a0178006105600077
:100860008180d1000080d3008502e900f9ff3b00c0
:10087000060440008784480002003b006004140026
:10088000e0841c000988a300070032008a817100ff
:1008900082817100610164008904d1000884d30061
:1008a0008b05e800170037000978a30013003a0011
:1008b0000b00e000130034008b05e900080444003d
:1008c00089844c000a4474000978a3000d003a00a2
:1008d0000b00e000070034008b05e9000804440029
:1008e00089844c0001003a000b0020000978a30025
:1008f000f7ff32000001eb00020037008281710037
:100900000a017800910007000cf0a70001f0a00098
:10091000da0037006420e10002003a00838f6c00a7
:10092000da0033000801be000200be00d300370029
:10093000889fbe008a9fbe008c1f7800be00070003
:10094000c500330003866c006450e1002e003200c5
:100950006420e100330032006150e1002f003200da
:100960006120e1003100320085855500eb07b000c1
:100970000900200008042000050037000804440096
:1009800089844c000a0031000603430087834b0032
:100990000001530081815b00f8ff33000203be00b9
:1009a0000800a0000804440089844c00f6ff3900c8
:1009b000c639dd00830173000100320013002000fe
:1009c0008904d1000884d3000998a30005003200ef
:1009d0000800a7000300a0008904d1000884d30008
:1009e0008b05e8008904d1000884d3000001eb00e6
:1009f0000281d2005500070001f0a1000cf0a70011
:100a000001f0a0009d0037006420e1009f0032004b
:100a10000801be000200be00f7ff37006120e100c0
:100a20009a0032006000b800f3ff37000000200099
:100a300001f82700f0ff370014002000ca0037003b
:100a4000f4ff2f00c80037000001be00650007005a
:100a50000470a70003f0a1006509b1001600320080
:100a60000d0035006828e10006003500f0ff2f007a
:100a7000f1ff27000300e00013003b000100280005
:100a80000000050000004000818048008502e90068
:100a9000fcff3a0008003700f88f420002003c00db
:100aa0008000eb00000005008100d1000080d30031
:100ab0008502e800fcff3a000300e00002003b0072
:100ac00060001000e0801800000006000001be0079
:100ad000440007000470a70003f0a10003f8a3007e
:100ae00013003a006509b10010003200090035001a
:100af0006928e1000200350001002800000005001f
:100b000000004000818048008502e900fcff3a00b7
:100b100000000600f88f4200050035008100d1007a
:100b20000080d3008502e800fcff3a0000000600c8
:100b30008000eb00000005004f89de008201780094
:100b4000a40037006011b800b20037008100200017
:100b5000618055000b003d000b00200061fe2f005e
:100b60000100e1001d003400828171006101640018
:100b70008904d1000884d3000000e800faff3a009d
:100b8000710020006100640003007000020060003a
:100b90000900320061044400e0844c000988a5008b
:100ba000050032008b05e8006808e10002003a0009
:100bb0008904d1000884d300f20f20000258e1001c
:100bc00005003d00c75ddd00f907b20089807500b2
:100bd00008007800000006000bf827008b00780062
:100be00000000500c70ade00f107b200f50fb200f1
:100bf00008003200e1cf4200020032000170a00084
:100c000024000500810f7000010032000408050077
:100c100044000500810f700002003a001400050036
:100c20008502e9000000400081c04800fcff3b0055
:100c30000170a000240005000004be00e9ff0700c9
:100c40000003be000405be000200be00e5ff070071
:100c5000844f7500000006000200be006450e100f1
:100c6000050036006420e100020036000968a30098
:100c700001003a000800be000160a0004f067800a5
:100c80004f05be004f04be0000000600f0ff2f001d
:100c9000f1ff2700f9ff3700889fbe008a9fbe0042
:100ca0008c1f7800e4ff0700ebff330003866c0025
:100cb0006450e100240032006420e100270032008b
:100cc0006150e100220032006120e1002100320089
:100cd0008b854200eb07b1000134b800003ab80040
:100ce0000804420089844a00013ab8000030b80084
:100cf0008880400009014a000400330000004000e1
:100d000081804800020149008b05e900c909dd0026
:100d1000830170000100320013002000c814de00bf
:100d20004814dd004709de001200b200c808de00ea
:100d30000884700085ff070001f0a1000cf0a700f7
:100d400001f0a000cdff37006120e100cfff3200ad
:100d50000801be000200be00f7ff37006150e1004d
:100d6000fcff3a00c9ff3700889fbe008a9fbe0083
:100d7000841f7800b0ff07004f0078001100330097
:100d8000f0ff2f00838f6c0006003b000405650018
:100d90000a00a7000800370009f0a6001000200094
:100da00008003700820f5400838f5c000300390075
:100db0001000200001003e000000200009f0a70004
:100dc0000000ea004f05be004f04be000000e00036
:100dd00000000600881f7800030478000300e0008c
:100de00007003d0060001000e0801800600119005d
:100df000e081190002003b0001f02d0003003700e4
:100e00000400070008f0a70001f0a0004f047800dc
:100e100000000600889fbe008a9fbe00008270000e
:100e20000402710004827100260032000004be003a
:100e30000200be006011b8006b092000950220007e
:100e40000182cf000a0039000541b1000082cf00c5
:100e5000070039000541b1000982cf0004003900c4
:100e60000541b1000882cf00010039000541b10001
:100e700005425200120032000a003b0082817100dc
:100e8000610164008100d1000080d3008984d30017
:100e90000884d3008b05e8000442e800f7ff3a001d
:100ea000070037000804440089844c000000480013
:100eb000818048008b05e9000442e900f9ff3a000f
:100ec00022ff07004f05be004f04be0000000600d1
:020000040000fa
:100ed0000600fa00881f780099060700c30607007d
:100ee0003e030700560307006003070064cea80016
:100ef00064eea800254ea8004f0407001206070064
:100f00005b060700520607000004e000fc00320008
:100f1000530607004a060700000f78001e007800fd
:100f200010007800608088001e80e80010007800c3
:100f3000708088009e007800648040001000780077
:100f4000808088009e007800668040001000780055
:100f5000708088009e007800688040001000780053
:100f6000808088001e007800100078008000eb0070
:100f7000f4fe0700323323003305240046ff070048
:100f8000020020000358240069fe0700d2cc2c0088
:100f9000c304240040ff07001007980021079800b1
:100fa0001e019000ae01900000002000812024006e
:100fb0005ffe070002002000030a2400fefd070078
:100fc00020868800318688001e80e80010007800a6
:100fd0008000eb00dbfe07003233230033052400e2
:100fe0002dff0700020020000358240050fe0700d8
:100ff000d2cc2c00c304240027ff07001007980060
:10100000210798001e019000ae0190000000200012
:101010008120240046fe070002002000030a24006d
:10102000e5fd0700c0858800d18588009e00780016
:1010300064804000100078008000eb00c1fe0700d3
:10104000323323003305240013ff07000200200081
:101050000358240036fe0700d2cc2c00c304240021
:101060000dff070010079800210798001e0190004f
:10107000ae01900000002000812024002cfe07001b
:1010800002002000030a2400cbfd0700e085880051
:10109000f18588009e00780068804000100078008c
:1010a0008000eb00a7fe0700323323003305240045
:1010b000f9fe070002002000035824001cfe070070
:1010c000d2cc2c00c3042400f3fe070010079800c4
:1010d000210798001e019000ae0190000000200042
:1010e0008120240012fe070002002000030a2400d1
:1010f000b1fd070000868800118688009e007800f8
:1011000066804000100078008000eb008dfe070034
:101110003233230033052400dffe070002002000e5
:101120000358240002fe0700d2cc2c00c304240084
:10113000d9fe070010079800210798001e019000b3
:10114000ae0190000000200081202400f8fd07007f
:1011500002002000030a240097fd07004086880053
:1011600051868800e0858000f185800018c0b300ba
:1011700002002000031224002ffe07000000e00000
:10118000010035000044eb000804e00004003200d8
:101190000000200001122400e0858800f18588000d
:1011a000008680001186800018c0b3000200200075
:1011b0000312240020fe07000000e00001003500bb
:1011c0000044eb000804e0000400320000002000ae
:1011d000011224000086880011868800c0858000e6
:1011e000d185800018c0b300020020000312240043
:1011f00011fe07000000e000010035000044eb0094
:101200000804e00004003200000020000112240065
:10121000c0858800d1858800408680005186800086
:1012200018c0b300020020000312240002fe0700d1
:101230000000e000010035000044eb000804e0007d
:1012400004003200000020000112240040868800c3
:1012500051868800208680003186800018c0b30047
:101260000200200003122400f3fd07000000e0004c
:10127000010035000044eb000804e00004003200e7
:10128000000020000112240020868800318688009a
:10129000c0858000d185800018c0b3000200200006
:1012a000031f2400e4fd07000000e00001003500fa
:1012b0000044eb000804e00002003200254ea800c4
:1012c00001003700254ea9000086800011868000ad
:1012d00018c0b30002002000031f2400d6fd070041
:1012e0000000e000010035000044eb000804e000cd
:1012f0000200320064cea8000100370064cea900cd
:10130000608580007185800002002000831c24001d
:10131000c9fd07000000e00009003a00a085800038
:10132000b185800002002000831c2400c2fd07005c
:101330000000e00002003a0064eea800f1fe370071
:1013400064eea900effe37000000fa0016d0bf00df
:101350000080fb00cf80de00b200200003002000f0
:10136000820f5000838f580060003e00000601008d
:101370000b003700140037001d003700270037002e
:101380002800370031003700320037003b003700bb
:101390003c00370046003700470037005100370057
:1013a0001a30ef001c30ef0012c0b3006000b8002c
:1013b000e80307000041eb006000b800e503070008
:1013c00010c0b30016f0b700d2808000e380800028
:1013d000803e200001002000800f5100818f5900c5
:1013e0004500360020c0b30016f0b70043003700b8
:1013f00012c0b30000002000811c2400d5030700a8
:101400000041eb0000002000811c2400d1030700f4
:1014100030c0b30016f0b7003800370039000700bd
:101420003600370012c0b300000020000115240070
:10143000c80307000041eb006000b800c5030700c7
:1014400050c0b30016f0b7002c0037002d00070085
:101450002a00370012c0b3006000b800bd030700c7
:101460000041eb000000200001152400b903070033
:1014700070c0b30016f0b70020003700210007004d
:101480001e00370012c0b300000020000117240026
:10149000b00307000041eb000000200001172c0002
:1014a000ac03070090c0b30016f0b700130037007c
:1014b000140007001100370012c0b3000000200024
:1014c00001172c00a30307000041eb0000002000df
:1014d000011724009f030700b0c0b30016f0b70047
:1014e0000600370007000700040037001670ef0001
:1014f0000000000001003700000000000080fa003a
:10150000000006000200fa00881f78000040eb008f
:10151000004f780016d0bf00e24f500003003a00a1
:1015200016d0bf00e34f500044003200c085800059
:10153000d185800018c0b30002002000432324009e
:101540003dfd07000000e000010035000044eb0015
:101550000804e00016003200e0858000f18580007c
:1015600018c0b30002002000031f240034fd070050
:101570000000e00001003c000044eb000804e00033
:101580000b003200008680001186800018c0b30076
:1015900002002000031f240029fd07000000e000d6
:1015a00001003c000044eb000804e00021003a0088
:1015b000208680003186800018c0b3000200200021
:1015c000031424001cfd07000000e00001003400ab
:1015d0000044eb000804e0000b00320000868000ad
:1015e0001186800018c0b30002002000c320240030
:1015f00013fd07000000e00001003c000044eb0088
:101600000804e0000b003a0020868000318680004c
:1016100018c0b300020020000314240006fd0700d8
:101620000000e000010034000044eb000804e0008a
:101630000200320020c0b300004f780016d0bf0077
:10164000e24f50000300320016d0bf00e34f5000bd
:1016500045003a00c0858000d185800018c0b300e5
:101660000200200043262400f3fc07000000e000f5
:10167000010035000044eb000804e00016003200d1
:10168000e0858000f185800018c0b30002002000d2
:1016900003232400eafc07000000e00001003c00f6
:1016a0000044eb000804e0000b00320000868000dc
:1016b0001186800018c0b30002002000032324001c
:1016c000dffc07000000e00001003c000044eb00ec
:1016d0000804e00021003a00208680003186800066
:1016e00018c0b3000200200003202400d2fc070031
:1016f0000000e000010035000044eb000804e000b9
:101700000b003200008680001186800018c0b300f4
:101710000200200003232400c9fc07000000e000b1
:1017200001003c000044eb000804e0000b003a001c
:10173000208680003186800018c0b300020020009f
:10174000031b2400bcfc07000000e0000100340083
:101750000044eb000804e0000300320050c0b30076
:10176000004f7800e100370016d0bf00e24f500074
:101770000300320016d0bf00e34f500045003a008e
:10178000c0858000d185800018c0b3000200200011
:1017900003232400aafc07000000e00001003c0035
:1017a0000044eb000804e00016003200e0858000f1
:1017b000f185800018c0b30002002000032324003c
:1017c0009ffc07000000e00001003c000044eb002b
:1017d0000804e0000b0032000086800011868000c3
:1017e00018c0b300020020004326240092fc07002a
:1017f0000000e000010035000044eb000804e000b8
:1018000021003a00c0858000d185800018c0b30057
:10181000020020000323240089fc07000000e000f0
:1018200001003c000044eb000804e0001900320015
:10183000408680005186800018c0b300020020005e
:10184000032024007cfc07000000e00001003500bc
:101850000044eb000804e0000b003a0040868000e2
:101860005186800018c0b30002002000031b240032
:1018700071fc07000000e000010034000044eb00b0
:101880000804e0000300320040c0b300004f7800bd
:101890009600370016d0bf00e24f500003003a0018
:1018a00016d0bf00e34f500045003200c0858000d5
:1018b000d185800018c0b30002002000031f24005f
:1018c0005ffc07000000e00001003c000044eb006a
:1018d0000804e00016003200e0858000f1858000f9
:1018e00018c0b30002002000031f240054fc0700ae
:1018f0000000e00001003c000044eb000804e000b0
:101900000b003200008680001186800018c0b300f2
:10191000020020004323240047fc07000000e000f1
:10192000010035000044eb000804e00021003a000b
:10193000c0858000d185800018c0b300020020005f
:10194000c32024003efc07000000e00001003c0032
:101950000044eb000804e0000b00320040868000e9
:101960005186800018c0b300020020000314240038
:1019700031fc07000000e000010034000044eb00ef
:101980000804e0000b003a00408680005186800089
:1019900018c0b300020020000314240026fc070036
:1019a0000000e000010034000044eb000804e00007
:1019b0000300320010c0b300004f78004b00370026
:1019c000e0858000f185800018c0b300020020008f
:1019d0004321240018fc07000000e000010035004e
:1019e0000044eb000804e0000900320016d0bf00fc
:1019f000e24f500003003a0016d0bf00e34f500002
:101a00000300320030c0b300004f780037003700c9
:101a1000e0858000f185800018c0b300020020003e
:101a2000c323240004fc07000000e000010035008f
:101a30000044eb000804e0000900320016d0bf00ab
:101a4000e24f50000300320016d0bf00e34f5000b9
:101a500003003a0060c0b300004f78002300370055
:101a6000c0858000d185800018c0b300020020002e
:101a700043232400f2fb07000000e00001003c00cb
:101a80000044eb000804e00018003200e08580000c
:101a9000f185800018c0b30002002000c325240097
:101aa000e7fb07000000e00001003c000044eb0001
:101ab0000804e0000d0032000086800011868000de
:101ac00018c0b3000200200043232400dcfb070001
:101ad0000000e00001003c000044eb000804e000ce
:101ae000020032000040eb00004f78001e407800fa
:101af0000004e00003003a0020c0b30017f0b70074
:101b00002a0037001e407800e24f500003003200e8
:101b10001e407800e54f500003003a0040c0b3007b
:101b200017f0b700210037001e407800e14f500049
:101b3000030032001e407800e44f500003003a00da
:101b400060c0b30017f0b700180037001e407800df
:101b5000e34f5000030032001e407800e64f500073
:101b600012003a002486800035868000408680007e
:101b70005186800018c0b3000001be000400be0002
:101b8000affb07000000e00001003d000044eb0057
:101b90000804e00003003200a0c0b30017f0b70053
:101ba0000200370080c0b30017f0b70017d0bf00a5
:101bb0008080fb0016d0bf000080fb000000e90021
:101bc000808f50000200320017d0bf0016f0b7001f
:101bd0004f0478000080fa00000006000000fa00c0
:101be00013e1a90011e1a9001061a8001021a900ca
:101bf00081088000f0fc2f000080600080088800d1
:101c00000a21ef000621ef00b0be20007008880016
:101c100000202c00600888002142800080ff2f00f7
:101c2000008060000000a000204288000108a90098
:101c30002108a80011e1a8000080fa0000000600b9
:101c40000000fa0000002000613124008600070037
:101c500005e1a9000421a9000068a9002068a800e6
:101c600005e1a8000080fa00000006000000fa006c
:101c700000002000a1472400070007001fe1a90081
:101c80001e21a9000368a9002368a8001fe1a8007d
:101c90000080fa00000006000400fa00881f7800a7
:101ca000008fbe00f1088000f0fc2f000080600073
:101cb000f00888001e0178009e019000006829004d
:101cc00081c124001afb070018c0b30002f02f00e6
:101cd000f37724005afb07000000e00001003c00fd
:101ce0000044eb000804e00054003200f1088000da
:101cf000f0fc2f00008060000040a000f008880089
:101d00001e0178009e0190000068290081c1240016
:101d100007fb0700020020000310240004fb07005b
:101d200018c0b30002f02f00f377240044fb070033
:101d30000000e00001003c000044eb000804e0006b
:101d400032003200f1088000f0fc2f0000806000bb
:101d50000050a000f00888001e0178009e0190004d
:101d60000068290081c12400f1fa07000200200068
:101d700003282400eefa070018c0b30002f02f0079
:101d8000f37724002efb07000000e00001003c0078
:101d90000044eb000804e00010003200f10880006d
:101da0000003200001007000f00888001e01780088
:101db0009e0190000068290081c12400dcfa070020
:101dc0000200200003382400d9fa07001efb070098
:101dd00000007800d0088800200037001e0178003d
:101de0009e0190000068290081c12400d0fa0700fc
:101df0000200200003282400cdfa070012fb070090
:101e000000007800d0088800140037001e01780018
:101e10009e0190000068290081c12400c4fa0700d7
:101e20000200200003102400c1fa070006fb07008f
:101e300000007800d0088800080037001e017800f4
:101e40009e0190000068290081c12400b8fa0700b3
:101e5000fdfa070000007800d00888004f047800e1
:101e60000080fa00000006000400fa00881f7800d5
:101e7000008fbe0021088000f0fc2f000080600071
:101e8000200888001e0178009e019000006829004b
:101e900081c12400a6fa070018c0b30002f02f0089
:101ea000f3772400e6fa07000000e00001003c00a0
:101eb0000044eb000804e0005400320021088000d8
:101ec000f0fc2f00008060000040a0002008880087
:101ed0001e0178009e0190000068290081c1240045
:101ee00093fa0700020020000310240090fa070074
:101ef00018c0b30002f02f00f3772400d0fa0700d7
:101f00000000e00001003c000044eb000804e00099
:101f10003200320021088000f0fc2f0000806000b9
:101f20000050a000200888001e0178009e0190004b
:101f30000068290081c124007dfa0700020020000a
:101f4000032824007afa070018c0b30002f02f001b
:101f5000f3772400bafa07000000e00001003c001b
:101f60000044eb000804e00010003200210880006b
:101f70000003200001007000200888001e01780086
:101f80009e0190000068290081c1240068fa0700c2
:101f9000020020000338240065fa0700aafa0700af
:101fa0000000780010088800200037001e0178002b
:101fb0009e0190000068290081c124005cfa07009e
:101fc000020020000328240059fa07009efa0700a7
:101fd0000000780010088800140037001e01780007
:101fe0009e0190000068290081c1240050fa07007a
:101ff00002002000031024004dfa070092fa0700a7
:102000000000780010088800080037001e017800e2
:102010009e0190000068290081c1240044fa070055
:1020200089fa070000007800100888004f04780043
:102030000080fa00000006000000fa001160800035
:1020400080ff2f00008060001060880000fa2000f0
:102050002060880023aca800238ca80011618000b8
:10206000f03f2f000080600000a0a00010618800f9
:102070003000200020618800c3aca800c38ca800f9
:1020800011668000f03f2f000080600000a0a000db
:1020900010668800300020002066880001eca8004f
:1020a0000080fa00000006000000fa00889fbe00d1
:1020b0008a9fbe00a4858000b58580008085800051
:1020c0009185800018c0b3000001be000400be006e
:1020d00059fa07000000e000010035000044eb0061
:1020e0000804e0000f003200888580009985800098
:1020f000aa858000bb85800024d0bf000080fb0043
:10210000cf80de008cfa07000001be000a00be008e
:10211000aaf907000801be00cd000700a0858800cd
:10212000b1858800a4858000b58580008085800009
:102130009185800018c0b3000001be000400be00fd
:102140003ffa07000000e00001003c000044eb0003
:102150000804e0000f003200888580009985800027
:10216000aa858000bb85800024d0bf000080fb00d2
:10217000cf80de0070fa07000001be000a00be003a
:102180008df907000801be0099000700a0858800ae
:10219000b1858800a0858000b185800018c0b3009b
:1021a0006011b80024fa07000000e00001003500cb
:1021b0000044eb000804e00004003200c3cca90096
:1021c00024eea800c3eca80003003700c3eca9006c
:1021d00024cea800c3cca800a0858000b1858000d3
:1021e0006d0007000200200003222400aafa070065
:1021f00036fa0700000078003066880064858000a9
:1022000075858000408580005185800018c0b3002e
:102210000001be000400be0007fa07000000e00055
:10222000010035000044eb000804e0000f0032001c
:1022300048858000598580006a8580007b85800004
:1022400024d0bf000080fb00cf80de003afa0700f8
:102250000001be000a00be0058f907000801be00d8
:102260007b00070060858800718588006485800098
:1022700075858000408580005185800018c0b300be
:102280000001be000400be00edf907000000e00000
:1022900001003c000044eb000804e0000f003200a5
:1022a00048858000598580006a8580007b85800094
:1022b00024d0bf000080fb00cf80de001efa0700a4
:1022c0000001be000a00be003bf907000801be0085
:1022d0004700070060858800718588006085800060
:1022e0007185800018c0b3006011b800d4f90700f0
:1022f0000000e00001003c000044eb000804e000a6
:102300000400320023cca90015eea80023eca8009d
:102310000300370023eca90015cea80023cca800a9
:1023200060858000718580001b000700020020008e
:102330000322240058fa0700e4f90700000078009f
:10234000306188004f05be004f04be000080fa00d7
:10235000000006000600fa00008fbe004247980009
:102360004e4090000004e00005003a001e01780095
:102370009e01900042858800538588000400370044
:102380001e0178009e019000828588009385880058
:102390000080fa00000006000400fa00881f7800a0
:1023a000008fbe0018c0b3006011b8001e00780096
:1023b0009e009000a2f907000000e00001003d002f
:1023c0000044eb000804e000030032001e00780027
:1023d0009e009000030037001e0078009e009000d1
:1023e00001f0a2004f0478000080fa00000006000f
:1023f0000800fa00881f7800008fbe0022079800ae
:102400003307980018c0b3002e019000be01900061
:102410001e0078009e00900089f907000000e0008f
:1024200001003c000044eb000804e000030032001f
:102430001e0078009e009000020037002e009000e1
:10244000be0090004f0478000080fa0000000600f3
:102450000800fa00881f7800008fbe00220798004d
:102460003307980018c0b3002e019000be01900001
:102470001e0078009e0090006ff907000000e00049
:10248000010035000044eb000804e00003003200c6
:102490001e0078009e009000020037002e00900081
:1024a000be0090004f0478000080fa000000060093
:1024b0000c00fa00881f7800008fbe0022079800e9
:1024c00033079800440798005507980018c0b300d8
:1024d0004e019000de0190001e0078009e009000ea
:1024e00057f907000000e00001003c000044eb0049
:1024f0000804e000040032004e019000de0190006c
:10250000028fbe000e00370018c0b3002e019000ed
:10251000be0190001e0078009e00900046f9070062
:102520000000e000010035000044eb000804e0007a
:10253000030032002e019000be019000028fbe0009
:102540001e0078009e0090004f0478000080fa0082
:10255000000006000400fa00008fbe00b2fd20005b
:10256000930424001e0078009e009000f0f80700fd
:102570000200200043332400c7f907000080fa005e
:10258000000006000400fa00008fbe00b2fd20002b
:10259000930424001e0078009e009000bef90700fe
:1025a0000200200043332400e1f807000080fa0015
:1025b000000006000600fa001007980021079800a6
:1025c0000040eb00004f780048000700ae0090008c
:1025d000810f5000110034000040eb00004f7800e4
:1025e000060037001e80fb009e0090000080400027
:1025f000104078000b0007001e4fe8009e80fb0093
:102600002e009000808f5000f6ff35003300070049
:102610000004e00001003a00270007000080fa00f3
:10262000000006000200fa00004f780000818000e0
:1026300061022100008040001e4878000081800077
:102640000000e8000081880001818000000820006f
:10265000808f500001003a002030ef000080fa0027
:10266000000006000200fa00f080800061022100f4
:1026700000804000104f7800f0808000610221004f
:10268000008040008040eb0001487800f08080002e
:102690000000e800f0808800f18080000008200041
:1026a000808f500001003a001e30ef001e4078007d
:1026b0000080fa00000006000200fa0010c0b3001b
:1026c00022f0b700e7ff0700004f78001e80fb00f4
:1026d000201188000080fa00000006000000fa00c7
:1026e00022d0bf000080fa00000006000400fa00bb
:1026f0000040eb00204798000040eb002047980086
:102700000b0037002e4090000080fb00610221008a
:1027100000804000104078000004e00001003a0012
:102720001e0fe8002e4090000040e800204798006f
:102730002e4090000004e000f2ff3d001e007800f3
:102740000080fa00000006000000fa0021e3a90062
:102750002143a80001198000f0cf2f000080600005
:10276000001988002043a90001198000000e2000f4
:10277000010070000019880011198000f0ff21008d
:1027800000806000101988002343a8001119800000
:10279000f0cf2f0000806000101988001119800010
:1027a00030f82f00008060000040a0001019880061
:1027b0002203a9002223a90025e3a900f0c0b30049
:1027c00024e3b70021198000f00f2e008080600004
:1027d00000f0200001007000201988003303a900d8
:1027e0002e0ea8002f6ea8006f2ea8001e2ea80087
:1027f0004feea80030c3a8003163a8002e03a80044
:102800003063a80031e3a8004119800000fc2f00cc
:10281000008060004019880028e3a90001a8a900f1
:1028200021a8a80021e3a8000080fa00000006000b
:102830000000fa002023a8000080fa000000060033
:102840000000fa00200021000080fa0000000600cd
:102850000000fa000ad0bf000080fa000000060065
:102860000000fa000a70ef000080fa000000060085
:102870000000fa002002a9000111800090ff2f0043
:10288000008060000011880020a2a9002062a8003a
:10289000500520004011880023a2a90023e2a900ce
:1028a0000188a9002188a90011118000f0f32f00f0
:1028b00000806000101188000168a9002168a8004c
:1028c00021e2a8002342a8000080fa0000000600d0
:1028d0000600fa0010079800210798000040eb005e
:1028e000004f78000040eb00004f78000e003700ea
:1028f0000000000011118000002020000080600016
:102900000000e000fbff3a001e009000104078003d
:102910000080fb00201188001e0090000000e800ed
:10292000100798001e4fe8009e80fb002e009000cc
:10293000808f5000eeff35000080fa000000060096
:102940000000fa00f0032000303a8800213a8000ad
:10295000f0f32f0000806000203a8800213a8000c8
:1029600000fe2f00008060000000a000203a8800d8
:102970001200200080072000a109200033742000ed
:10298000804978008149780082497800103a8000b7
:10299000000178000200a000600420007105200002
:1029a00023742000804978008149780082497800aa
:1029b00000000000113a80000000270080806000c5
:1029c00000002100808f5000faff3a000000000054
:1029d000113a800000022000008060000000e0004a
:1029e000fbff32000080fa00000006000000fa0041
:1029f0000e2eef001e2eef002e2eef003e2eef00cb
:102a00004e2eef005e2eef006e2eef00214ea9003d
:102a100060cea90060eea90011cea90011eea900b8
:102a200020cea90020eea900200ea800216ea8004b
:102a3000612ea800102ea80041eea80021368000cb
:102a400000f82f00008060008001b300203688006d
:102a50001134800000fc2f00008060000000a00006
:0c2a6000103488000080fa00000006001e
:020000040000fa
:102a6c00001000000c00000080000000241000008a
:102a7c00020000008200000001000000a61000000f
:102a8c002600000080000000181000000600000066
:102a9c00800000000c1000000c0000008000000002
:102aac002610000080000000800000001e100000b6
:0c2abc0006000000800000000000000088
:020000040000fa
:02000004000af0
:04afe000cfff00009f
:020000040000fa
:02000004000af0
:04afe400ffff00006b
:020000040000fa
:02000004000af0
:04afe8007fff0000e7
:020000040000fa
:02000004000af0
:04afec005fff000003
:020000040000fa
:02000004000af0
:04aff00038ff000026
:020000040000fa
:02000004000af0
:04aff400ffff00005b
:00000001FF
