:020000040000fa
:080000000002040000000000f2
:020000040000fa
:04000800f003000001
:020000040000fa
:04000c00f0030000fd
:020000040000fa
:04001000f0030000f9
:020000040000fa
:04001400f0030000f5
:020000040000fa
:04001800f0030000f1
:020000040000fa
:04001c00f0030000ed
:020000040000fa
:04002000f0030000e9
:020000040000fa
:04002400f0030000e5
:020000040000fa
:04002800f0030000e1
:020000040000fa
:04002c00f0030000dd
:020000040000fa
:04003000f0030000d9
:020000040000fa
:04003400380300008d
:020000040000fa
:04003800f0030000d1
:020000040000fa
:04003c00f0030000cd
:020000040000fa
:04004000f0030000c9
:020000040000fa
:04004400f0030000c5
:020000040000fa
:040048003003000081
:020000040000fa
:04004c00f0030000bd
:020000040000fa
:04005000f0030000b9
:020000040000fa
:04005400ac030000f9
:020000040000fa
:04005800820300001f
:020000040000fa
:04005c00fa020000a4
:020000040000fa
:04006000f0030000a9
:020000040000fa
:04006400f0030000a5
:020000040000fa
:04006800f0030000a1
:020000040000fa
:04006c00f00300009d
:020000040000fa
:04007000f003000099
:020000040000fa
:04007400f003000095
:020000040000fa
:04007800f003000091
:020000040000fa
:04007c00f00300008d
:020000040000fa
:04008000f003000089
:020000040000fa
:04008400f003000085
:020000040000fa
:04008800f003000081
:020000040000fa
:04008c00f00300007d
:020000040000fa
:04009000f003000079
:020000040000fa
:04009400580300000d
:020000040000fa
:04009800f003000071
:020000040000fa
:04009c00f00300006d
:020000040000fa
:0400a000f003000069
:020000040000fa
:0400a400f003000065
:020000040000fa
:0400a800f003000061
:020000040000fa
:0400ac00f00300005d
:020000040000fa
:0400b000f003000059
:020000040000fa
:0400b400f003000055
:020000040000fa
:0400b800f003000051
:020000040000fa
:0400bc00f00300004d
:020000040000fa
:0400c000f003000049
:020000040000fa
:0400c400f003000045
:020000040000fa
:0400c800f003000041
:020000040000fa
:0400cc00f00300003d
:020000040000fa
:0400d000f003000039
:020000040000fa
:0400d400f003000035
:020000040000fa
:0400d800f003000031
:020000040000fa
:0400dc00f00300002d
:020000040000fa
:0400e000f003000029
:020000040000fa
:0400e400f003000025
:020000040000fa
:0400e800f003000021
:020000040000fa
:0400ec00f00300001d
:020000040000fa
:0400f000f003000019
:020000040000fa
:0400f400f003000015
:020000040000fa
:0400f800f003000011
:020000040000fa
:0400fc00f00300000d
:020000040000fa
:04010000f003000008
:020000040000fa
:04010400f003000004
:020000040000fa
:04010800f003000000
:020000040000fa
:04010c00f0030000fc
:020000040000fa
:04011000f0030000f8
:020000040000fa
:04011400f0030000f4
:020000040000fa
:04011800f0030000f0
:020000040000fa
:04011c00f0030000ec
:020000040000fa
:04012000f0030000e8
:020000040000fa
:04012400f0030000e4
:020000040000fa
:04012800f0030000e0
:020000040000fa
:04012c00f0030000dc
:020000040000fa
:04013000f0030000d8
:020000040000fa
:04013400f0030000d4
:020000040000fa
:04013800f0030000d0
:020000040000fa
:04013c00f0030000cc
:020000040000fa
:04014000f0030000c8
:020000040000fa
:04014400f0030000c4
:020000040000fa
:04014800f0030000c0
:020000040000fa
:04014c00f0030000bc
:020000040000fa
:04015000f0030000b8
:020000040000fa
:04015400f0030000b4
:020000040000fa
:04015800f0030000b0
:020000040000fa
:04015c00f0030000ac
:020000040000fa
:04016000f0030000a8
:020000040000fa
:04016400f0030000a4
:020000040000fa
:04016800f0030000a0
:020000040000fa
:04016c00f00300009c
:020000040000fa
:04017000f003000098
:020000040000fa
:04017400f003000094
:020000040000fa
:04017800f003000090
:020000040000fa
:04017c00f00300008c
:020000040000fa
:04018000f003000088
:020000040000fa
:04018400f003000084
:020000040000fa
:04018800f003000080
:020000040000fa
:04018c00f00300007c
:020000040000fa
:04019000f003000078
:020000040000fa
:04019400f003000074
:020000040000fa
:04019800f003000070
:020000040000fa
:04019c00f00300006c
:020000040000fa
:0401a000f003000068
:020000040000fa
:0401a400f003000064
:020000040000fa
:0401a800f003000060
:020000040000fa
:0401ac00f00300005c
:020000040000fa
:0401b000f003000058
:020000040000fa
:0401b400f003000054
:020000040000fa
:0401b800f003000050
:020000040000fa
:0401bc00f00300004c
:020000040000fa
:0401c000f003000048
:020000040000fa
:0401c400f003000044
:020000040000fa
:0401c800f003000040
:020000040000fa
:0401cc00f00300003c
:020000040000fa
:0401d000f003000038
:020000040000fa
:0401d400f003000034
:020000040000fa
:0401d800f003000030
:020000040000fa
:0401dc00f00300002c
:020000040000fa
:0401e000f003000028
:020000040000fa
:0401e400f003000024
:020000040000fa
:0401e800f003000020
:020000040000fa
:0401ec00f00300001c
:020000040000fa
:0401f000f003000018
:020000040000fa
:0401f400f003000014
:020000040000fa
:0401f800f003000010
:020000040000fa
:0401fc00f00300000c
:020000040000fa
:04020000f003000007
:020000040000fa
:04020400f003000003
:020000040000fa
:04020800f0030000ff
:020000040000fa
:04020c00f0030000fb
:020000040000fa
:04021000f0030000f7
:020000040000fa
:04021400f0030000f3
:020000040000fa
:04021800f0030000ef
:020000040000fa
:04021c00f0030000eb
:020000040000fa
:04022000f0030000e7
:020000040000fa
:04022400f0030000e3
:020000040000fa
:04022800f0030000df
:020000040000fa
:04022c00f0030000db
:020000040000fa
:04023000f0030000d7
:020000040000fa
:04023400f0030000d3
:020000040000fa
:04023800f0030000cf
:020000040000fa
:04023c00f0030000cb
:020000040000fa
:04024000f0030000c7
:020000040000fa
:04024400f0030000c3
:020000040000fa
:04024800f0030000bf
:020000040000fa
:04024c00f0030000bb
:020000040000fa
:04025000f0030000b7
:020000040000fa
:04025400f0030000b3
:020000040000fa
:04025800f0030000af
:020000040000fa
:04025c00f0030000ab
:020000040000fa
:04026000f0030000a7
:020000040000fa
:04026400f0030000a3
:020000040000fa
:04026800f00300009f
:020000040000fa
:04026c00f00300009b
:020000040000fa
:04027000f003000097
:020000040000fa
:04027400f003000093
:020000040000fa
:04027800f00300008f
:020000040000fa
:04027c00f00300008b
:020000040000fa
:04028000f003000087
:020000040000fa
:100400008f1f21000eff2c000e018800000000004d
:10041000000020000000e000020032000001200087
:100420002002880014000700ef0007000000e00031
:1004300003003a0060ca21000100200002003700da
:100440000000200001002000810f70000100320038
:100450000f000700000020000000e0000200320052
:100460000000020000000000640c02000000000018
:100470000040da000000fe00200020000000e00044
:1004800002003200100020009001880000000600e9
:10049000a1028800800478000000eb001f003700f4
:1004a000e284440054a0b4009905ba00e2844400f8
:1004b00054a0b4009906ba00e284440054a0b400e9
:1004c0000006eb00476fde00fd07b200ae018800ba
:1004d000636ce10003003a000ad801000000eb0061
:1004e0000e003700606ce10008003a00004deb00a0
:1004f0000a05e800020039003420ec000af0a000f0
:100500008b05e900f9ff3e00040037006168e10057
:10051000010032000086eb000b00070019c7ba008b
:100520000e04e0001905ba0003003a000a00e000da
:10053000dbff3a0000000600fe07b200ae028800b2
:100540008a047800f5ff37000cd0a300e20f4d00bd
:100550001c003b0089027800354dba000a05e8000e
:10056000020039003420ec000af0a0008b05e900fd
:100570000f003200254dba000a05e80002003900dc
:100580003420ec000af0a0008b05e90008003200de
:100590000c00e0000600320015cdba000a05e800a4
:1005a000020039003420ec000af0a0008b05e900bd
:1005b0008984e80054a0b4000b00e000e2ff3a0098
:1005c000000006009902ba00055d78008b05e9007d
:1005d000f7ff3200c82ade00055d78008b05e900d0
:1005e000f3ff32000c00e000f1ff320019ddba0029
:1005f000eeff3700809fbe000000fa0001a8a900ae
:1006000001188000600121000108780011188000a5
:10061000600121000080e8000108780021188000b6
:10062000600121006400400001087800311880005a
:100630006001210066004000010878004118800038
:1006400060012100680040000108780010c0b3007c
:100650001ef0b7000080fa004f00be000040060008
:100660000000fa000108a9000080fa00004006001e
:100670003600f800809fbe00829fbe00849fbe00af
:10068000869fbe000000fa000068a900370a070034
:10069000200c07000080fa004f03be004f02be008e
:1006a0004f01be004f00be003600f90000400600ba
:1006b0003600f800809fbe00829fbe00849fbe006f
:1006c000869fbe000000fa000368a90070818000c8
:1006d0008181800061004000e080480070818800d6
:1006e00081818800cc0507000080fa004f03be001e
:1006f0004f02be004f01be004f00be003600f900a1
:10070000004006003600f800809fbe00829fbe00b9
:10071000849fbe00869fbe000000fa000188a900e9
:10072000a181800090818000808f50000200320003
:100730009a0b0700010037003670ef000080fa00c6
:100740004f03be004f02be004f01be004f00be006f
:100750003600f900004006003600f800809fbe0019
:10076000829fbe00849fbe00869fbe000000fa00ec
:100770000168a90010118000640060000000e00022
:10078000010032002242a9001011800062006000c6
:100790000000e000060032002222a9000500370018
:1007a0003011800000407800ea0b0700010037009c
:1007b0000000000010118000610060000000e000f7
:1007c000f7ff3a000080fa004f03be004f02be0060
:1007d0004f01be004f00be003600f9000040060089
:1007e0000040da000000fe000000050014002000b8
:1007f000ad033700f4ff2f00ab0337000001be004c
:100800003f0007000470a70003f0a1006509b100d4
:10081000160032000d0035006828e10006003500a2
:10082000f0ff2f00f1ff27000300e00013003b0062
:100830000100280000000500000040008180480001
:100840008502e900fcff3a0008003700f88f4200fb
:1008500002003c008000eb00000005008100d10098
:100860000080d3008502e800fcff3a000300e000ae
:1008700002003b0060001000e0801800000006004d
:100880000001be001e0007000470a70003f0a100d5
:1008900003f8a30013003a006509b100100032000c
:1008a000090035006928e100020035000100280038
:1008b0000000050000004000818048008502e9003a
:1008c000fcff3a0000000600f88f420005003500ea
:1008d0008100d1000080d3008502e800fcff3a00cf
:1008e000000006008000eb00000005004f89de00dc
:1008f00082017800870337006011b8009503370044
:10090000c70ade00f107b200f50fb200080032009e
:10091000e1cf4200020032000170a0002400050077
:10092000810f70000100320004080500440005003a
:10093000810f700002003a00140005008502e900f2
:100940000000400081c04800fcff3b000170a00097
:100950002400050007f82700078361000638e1003e
:1009600004003a00f70720008783610087037100c5
:1009700001003a0003f0a200889fbe008a9fbe00db
:100980008c9fbe00470ade000480a100c71ade006b
:100990000580a100070028000785600087856100a9
:1009a000f70f20000720e1009e0032000728e10039
:1009b0009c003200010678000400e000b400320020
:1009c000f7072000878060000170a0000500e000ac
:1009d000c0003200f7072000878161000370a0008b
:1009e000050652000f003a000b50e1000b003200e8
:1009f0000308e10002003a000200e1007e0032003c
:100a00000204500083845800040031000001fd00fe
:100a10008101fd008402fd008a05fd006044b800ec
:100a2000210037000520e10005003d000001fd0028
:100a30008101fd008402fd008a05fd0005065200cb
:100a40007a60e100050035000170a1004722dd0059
:100a5000848070008a807000630037006044b800b2
:100a6000ef02660007ff2f00070666000500e000a2
:100a700006003400f08312008714dd000511de004b
:100a8000071bdd00060171008519de007060e100c2
:100a9000050035000904780082047800030178001d
:100aa0008001eb00700656000b50e10003003a0095
:100ab00002004000838048000400370060041400f6
:100ac000e0841c0002005800838058000188a300c5
:100ad000060032008100d1000080d3008984d30059
:100ae0000884d3000402e800270037000178a3003f
:100af00025003a000100e000030032008186cf00ab
:100b0000698656000a0037008c0020000000e000d3
:100b100004003a0009007800880478000004eb0023
:100b2000700252008086cf000d0646000c06e900d8
:100b30007060e10006003500800078000900780050
:100b4000880478000004eb00700656007002520022
:100b50000c00e0000c0034008c08dd00f0031600ef
:100b60000703de00868070000c00dd00074bde000e
:100b7000060070008c4cdd000743de0086847400a4
:100b80000c44dd000c0252006120e1002000350021
:100b9000610160000700280087816400f7ff2700db
:100ba00087836400070374000300e000060032003e
:100bb00082037300040032000000e800e080480077
:100bc0000188a3000e003a00f70f20000720e10083
:100bd0004a003d000170a1004722dd008100720043
:100be0008a8070000000be004f06be004f05be00a8
:100bf0004f04be00000006006000b800faff370096
:100c00008100d1000080d3000402e800eeff37002d
:100c10000401780089017400a10107008a80700036
:100c2000f1ff3700f7010700070278000001fd001f
:100c30008101fd00f301070087027800850372003f
:100c40000778a300040032000001fd008101fd00cf
:100c500006020700e4ff3700850362000768a3006f
:100c6000080032000b50e10003003200f0ff2f00bb
:100c7000f1ff2700dcff37000001fd008101fd00ce
:100c8000d9ff37000468a300d7ff3200faff37000e
:100c9000f8ff2700888360000b003a000000e000a6
:100ca00009003a008303640082837300020032006b
:100cb0000200be00ccff37000b50e100ceff3a002f
:100cc0000200be00c8ff370014002000810064004d
:100cd0003eff3700f8ff27008883610004003a00d8
:100ce0000200e00002003a008c007800beff3700ee
:100cf000150020008301640039ff370001f8270048
:100d00000000200081007500b7ff3700889fbe00fb
:100d10008a9fbe008c9fbe001b0020000202be0006
:100d20000586680006002800060666004709de0002
:100d3000f20fb200820032000243e800800032006d
:100d4000c729de00f30fb2007d0032000343e80044
:100d50007b003200f107b2000170a000f507b2007d
:100d60000570a000c708dd004903de008680700022
:100d70004700dd00c72add004923de0086827200bd
:100d80004722dd000305510004035000858358000d
:100d90000300310000004000818048000a05e9009e
:100da0008c1f78008a9fbe00040050008580580088
:100db0000402420085824a00000040008180480011
:100dc0000005eb000004be006033b8000406be005e
:100dd0000d48e10056003100110009004dccd8004b
:100de0000c01b8000d02b8008481410060824a0005
:100df0008283530003045c0084845c0060055d0012
:100e00000a00e00025003a00800578000d40e1006e
:100e100049003100880078000700780011000900bf
:100e20004d88d8000c01b8000d02b8008481410043
:100e300060824a006003110083835b0004045c004d
:100e4000e0845c000900e00021003a004f01be0090
:100e50000300e0002b003200e3016000070673008e
:100e60008c81710001003200640070004200de00dd
:100e70004e5edd000c007000c258de0001e0a000f4
:100e800083010700cf017800818071004f06be000a
:100e90004f05be004f04be00000006008c834300d7
:100ea0000d044c00e0844c0060054d000000e9009a
:100eb0000a00e000d4ff32008c8343000d044c0094
:100ec000e0844c0060054d000000e900ceff3700d3
:100ed0000c0343008d834b0060044c00e0844c0005
:100ee0000000e9000900e000d8ff32000c034300d5
:100ef0008d834b0060044c00e0844c000000e9004e
:100f0000d2ff37004200de004e5edd000c007000b4
:100f1000c258de0001e0a000cf0178000300e0002d
:100f2000daff320060001000e0801800d7ff3700c1
:100f3000f0ff2f00aaff3700f0ff2f00b9ff3700a6
:100f40000404be002f010700870678000004fd009e
:100f50008104fd002b010700078366000678a300cb
:100f6000030032000960a7000800be002c00370013
:100f70000d78a300020032000800be0028003700f0
:100f80000778a30026003a0001f0a10009f0a100b3
:100f90000668a30003003200f1ff2700f0ff2f00d6
:100fa000baff37000d68a300030032000800be003e
:100fb0008c807000b5ff37000768a30007003a0077
:100fc0000648a30003003200f1ff2700f0ff2f00c6
:100fd000aeff37000d48a300030032006000b800e8
:100fe0008c807000a9ff37000748a300040032007e
:100ff00001f82700000020008c807000a3ff37005c
:10100000760107000004fd008104fd000205780060
:10101000720107000802be008a01780059ff3700fc
:101020000160a000120220000282880097ff3700b2
:101030000100e000120032000500e0001000320064
:10104000889fbe008a9fbe008c9fbe000006eb00fa
:1010500001f8a3000300320060001000e0801800d7
:101060000cf0a00005f8a30003003200600212009b
:10107000e0821a000cf0a2008005eb0041ff37006f
:101080006000b80002000500038368000700280024
:1010900007036300470ade000480a100c71ade00d0
:1010a0000580a100f70f20000720e1004200320078
:1010b0000728e10040003200889fbe008a9fbe00e2
:1010c0008c1f7800f107b200f307b2000400e000c3
:1010d000640032000170a0000500e00068003200ea
:1010e0000370a00085054200eb07b1000204b800c0
:1010f0000302b8008484440060854a00020ab800f4
:10110000848444000a854a00030ab80004054500a7
:10111000040033000804d0008984d2000a85d2007c
:101120008b05e9006158e1003d0035000210200008
:10113000090161000308200089816100f707200090
:101140008783640008867300c84cde00c853dd0046
:10115000878474004855de000300e000060032007a
:1011600082037600040032008904e80060054d0027
:101170000a88a3000c003a00f70f20000758e1008e
:1011800044003d000a70a100c75ddd000a857500be
:101190008a007300090078004f0678004f05be00f2
:1011a0004f04be00000006000a05d1008984d30068
:1011b0008b05e800f0ff3700881f780006047800f0
:1011c00090000700070278000001fd008101fd008a
:1011d0008c00070087027800850372000778a3005f
:1011e000050032000001fd008101fd009f000700a5
:1011f0004f04780000000600850372000748a30032
:1012000003003200f0ff2f00f1ff2700f8ff370046
:101210000000200001f8270088807000f4ff3700ec
:10122000880178004848dd00808171004848de0070
:10123000c850dd0001007000c850de0006047800d0
:101240000b0178001600070088807000d2ff37007d
:101250000500e00005003200170020003a000700fa
:101260009dff370081037000f9ff3a008600780087
:101270004f0678004f05be004f04be000000050079
:1012800083037100f9ff3200270020002e000700c1
:1012900094ff370001f8270086807000f4ff3700c4
:1012a0000100e00026003200610111007810e10029
:1012b00023003c006022b8007010e10004003500fb
:1012c00080027800010078008000eb00700151007e
:1012d0000200e0000900340070031100062add005e
:1012e000822ade008603dd00878272000200de00b3
:1012f000860bdd00070070008208de00848171002b
:10130000f4ff270004826200848171000400280039
:10131000848262006102600005f0a6000000060001
:1013200004827100070032000000e800e0804800fd
:10133000000006000002be006000b800efff3700aa
:101340006000b80000000600889fbe000004eb00ab
:101350006138e10016003a000100e00008003a00a0
:10136000c800de004800dd00880020000100e00029
:1013700003003a00c800de004800dd0068044400b5
:101380008184cf00e9845400060034008908dd0020
:10139000f08314008703de00878070000900dd0001
:1013a00009044400610214004f04be00000006005e
:1013b0000300e00008003a00c811de004811dd001b
:1013c000880020000300e00003003a00c811de009e
:1013d0004811dd00680444008384cf00e984540090
:1013e000060034008919dd00f08314008713de0045
:1013f000878171000911dd0009044400e102140035
:10140000e9ff37002700200001f0a70017002000a7
:10141000470bde00f60fb200040032000643e8007e
:101420000a0032004702b300000006000103780002
:10143000f607b2000603700002003a000703b3008b
:10144000000006008702b3000000060001037800d8
:10145000f607b20006037000020032000770a00019
:10146000000006000760a000000006000478a3004a
:10147000040032000578a300030032000168a300d5
:1014800001003a000200be000160a000000006005a
:1014900081017000270032008002eb0001f8a300f8
:1014a0000300320060001000e080180015002000ea
:1014b000f40720000202420020003400f70320005d
:1014c0008703600006042000000363000208200078
:1014d000000161004700de00c909dd0000807100e5
:1014e000c708de000600e000080032008703710034
:1014f000060032001000b0000180b0000188a30097
:1015000002003200c108de000402e800f107b20068
:10151000f30f20000320e10003003d004722dd001f
:10152000810072002900370001f827000000eb005d
:10153000260037006000b8000000060068021200b4
:101540007f20e100020034006000b8001f00370077
:101550006011b8007020e1000400350080017800bf
:10156000010078008000eb00700252000400e000ef
:1015700009003400f00312000719dd008419de00b1
:101580000703dd00868171000400de00070bdd002b
:10159000060070008408de00f7ff270083836300e5
:1015a0008703710006002800030363000700320070
:1015b0000700e00003003a0061016000028173004f
:1015c000020032001000b0000180b0000500a6004b
:1015d0000000060001f0a000000006004f0ade0037
:1015e0004709de00f107b200f20fb2000b00320033
:1015f000f207b1000170a000c708dd00c901de00dc
:10160000838070004700dd000400a6000000060093
:1016100060001000e080180000000600810f7000dc
:1016200001003a00000006008182cf000500e000c2
:1016300010003e008082cf00ee8242007028e10060
:101640000400390007003e00800078000000eb0035
:101650000e003700708312008600de000500dd00fa
:101660000a003700708352008600dd000000eb00a6
:1016700006003700e28252008508dd007083120008
:101680000603de00868070000500dd007507b000ef
:101690000501ea000400a60000000600600010003a
:1016a000e080180000000600889fbe008a9fbe00f0
:1016b000841f78007c0007004f0078001100330081
:1016c000f0ff2f00838f6c0006003b0004056500cf
:1016d0000a00a7000800370009f0a600100020004b
:1016e00008003700820f5400838f5c00030039002c
:1016f0001000200001003e000000200009f0a700bb
:101700000000ea004f05be004f04be000000e000ec
:1017100000000600881f7800030478000300e00042
:1017200007003d0060001000e08018006001190013
:10173000e081190002003b0001f02d00030037009a
:101740000400070008f0a70001f0a0004f04780093
:1017500000000600889fbe008a9fbe0000827000c5
:101760000402710004827100260032000004be00f1
:101770000200be006011b8006b0920009502200035
:101780000182cf000a0039000541b1000082cf007c
:10179000070039000541b1000982cf00040039007b
:1017a0000541b1000882cf00010039000541b100b8
:1017b00005425200120032000a003b008281710093
:1017c000610164008100d1000080d3008984d300ce
:1017d0000884d3008b05e8000442e800f7ff3a00d4
:1017e000070037000804440089844c0000004800ca
:1017f000818048008b05e9000442e900f9ff3a00c6
:10180000030007004f05be004f04be0000000600a5
:1018100081002000618055000b003d000b0020007e
:1018200061fe2f000100e1001d0034008281710083
:10183000610164008904d1000884d3000000e8003d
:10184000faff3a007100200061006400030070009c
:10185000020060000900320061044400e0844c0092
:101860000988a500050032008b05e8006808e10042
:1018700002003a008904d1000884d300f20f20004e
:101880000258e10005003d00c75ddd00f907b20028
:101890008980750008007800000006000bf827001a
:1018a0008b007800000005000004be0014fc070057
:1018b0000003be000405be000200be0010fc0700cd
:0818c000844f750000000600d2
:020000040000fa
:1018c8000a00fa00881f7800510807007b08070003
:1018d80071040700890407009304070064cea80078
:1018e80064eea800254ea800820507004d070700f2
:1018f800da0707000000eb00000f78000700370048
:10190800a50707008e80e800804878000e80e80070
:1019180010407800c10307001e0fe800b807070051
:101928009e0f5000f6ff3c00800707000004e0000f
:10193800250132008107070078070700800078003a
:101948006400470001087800640047001000780030
:1019580010007800008088006400470010007800bc
:101968000080e800100078001080880064004700bc
:101978001000780064004000100078002080880083
:1019880064004700100078006600400010007800ee
:10199800108088006400470010007800680040004c
:1019a800100078002080880064004700100078004c
:1019b800100078008000eb00cdfb070032332300d5
:1019c80033052400aefd0700020020000358240060
:1019d800ccfc0700d2cc2c00c3042400a8fd0700cf
:1019e800660147000089be006600470010017800c4
:1019f800900190000000200081202400c1fc070015
:101a080002002000030a2400d0fb0700008f880092
:101a1800118f880064004700100078000080e800fb
:101a2800100078008000eb00b1fb07003233230080
:101a38003305240092fd070002002000035824000b
:101a4800b0fc0700d2cc2c00c30424008cfd070096
:101a5800660147000089be00660047001001780053
:101a6800900190000000200081202400a5fc0700c0
:101a780002002000030a2400b4fb0700a08e88009f
:101a8800b18e8800640047001000780064004000b0
:101a9800100078008000eb0095fb0700323323002c
:101aa8003305240076fd07000200200003582400b7
:101ab80094fc0700d2cc2c00c304240070fd07005e
:101ac800660147000089be006600470010017800e3
:101ad80090019000000020008120240089fc07006c
:101ae80002002000030a240098fb0700c08e88002b
:101af800d18e88006400470010007800680040001c
:101b0800100078008000eb0079fb070032332300d7
:101b1800330524005afd0700020020000358240062
:101b280078fc0700d2cc2c00c304240054fd070025
:101b3800660147000089be00660047001001780072
:101b48009001900000002000812024006dfc070017
:101b580002002000030a24007cfb0700e08e8800b6
:101b6800f18e88006400470010007800660040008d
:101b7800100078008000eb005dfb07003233230083
:101b8800330524003efd070002002000035824000e
:101b98005cfc0700d2cc2c00c304240038fd0700ed
:101ba800660147000089be00660047001001780002
:101bb80090019000000020008120240051fc0700c3
:101bc80002002000030a240060fb0700208f880021
:101bd800318f8800c08e8000d18e800018c0b3007d
:101be8000200200003122400fefa07000000e000b3
:101bf800010035000044eb000804e0000400320056
:101c08000000200001122400c08e8800d18e8800b8
:101c1800e08e8000f18e800018c0b3000200200022
:101c280003122400effa07000000e000010035006d
:101c38000044eb000804e00004003200000020002b
:101c480001122400e08e8800f18e8800a08e8000aa
:101c5800b18e800018c0b3000200200003122400d7
:101c6800e0fa07000000e000010035000044eb0046
:101c78000804e000040032000000200001122400e3
:101c8800a08e8800b18e8800208f8000318f800060
:101c980018c0b3000200200003122400d1fa070084
:101ca8000000e000010035000044eb000804e000fb
:101cb800040032000000200001122400208f880058
:101cc800318f8800008f8000118f800018c0b3000a
:101cd8000200200003122400c2fa07000000e000fe
:101ce800010035000044eb000804e0000400320065
:101cf8000000200001122400008f8800118f880046
:101d0800e08e8000f18e8000dbfa070080407800ca
:101d1800001f210001487800c08e8000d18e80000d
:101d2800d5fa070080407800101f2100014878008c
:101d3800a08e8000b18e8000cffa07008040780026
:101d4800201f210001487800021f210031002000d7
:101d58000003200039020700a08e8000b18e8000a9
:101d680018c0b30002002000031f24009dfa0700da
:101d78000000e000010035000044eb000804e0002a
:101d880002003200254ea80001003700254ea900a8
:101d9800e08e8000f18e800018c0b30002002000a1
:101da800031f24008ffa07000000e000010035003f
:101db8000044eb000804e0000200320064cea800f2
:101dc8000100370064cea900408e8000518e80004b
:101dd80002002000831c240082fa07000000e000b3
:101de80009003a00808e8000918e80000200200059
:101df800831c24007bfa07000000e00002003a0080
:101e080064eea800bbfe370064eea900b9fe3700f7
:101e18000000fa000ad0bf000080fb00cf80de007f
:101e28003201200003002000820f5000838f5800e9
:101e3800ad003e0000060100130037001c0037000b
:101e4800250037002f003700330037003c003700eb
:101e58004000370049003700650037006f00370041
:101e6800730037007d003700910037009900370074
:101e78007f00370089003700450037004e003700e3
:101e88004f003700580037002e30ef003030ef0099
:101e980012c0b3006000b800dd0407000041eb0089
:101ea8006000b800da04070010c0b3000af0b700f9
:101eb8007281800083818000803e20000100200024
:101ec800800f5100818f59008a00360020c0b3006e
:101ed8000af0b7009600370012c0b30000002000d7
:101ee800811c2400ca0407000041eb000000200008
:101ef800811c2400c604070030c0b3000af0b700f4
:101f08008b0037003ed0bf00e14f50007b003a0005
:101f1800890007008600370012c0b30000002000c7
:101f280001152400ba0407000041eb006000b80066
:101f3800b704070050c0b3000af0b7007c003700b0
:101f48003ed0bf00e14f50006e003a007a00070013
:101f58007700370012c0b3006000b800ac04070077
:101f68000041eb000000200001152400a804070030
:101f780070c0b3000af0b7006d0037003ed0bf0054
:101f8800e14f500061003a006b000700680037001d
:101f980012c0b30000002000011624009c040700b2
:101fa8000041eb006000b8009904070010c1b300bd
:101fb8000af0b7005e0037005f0007005c003700da
:101fc80012c0b3006000b800910407000041eb00a4
:101fd80000002000011624008d04070030c1b30062
:101fe8000af0b700520037005300070050003700ce
:101ff80012c0b30000002000011724008404070069
:102008000041eb000000200001172c0080040700ad
:1020180090c0b3000af0b700450037003ed0bf00bb
:10202800e14f50003b003a004300070040003700f2
:1020380012c0b3000000200001172c007404070030
:102048000041eb0000002000011724007004070085
:10205800b0c0b3000af0b700350037003ed0bf006b
:10206800e14f50002d003a003300070030003700e0
:1020780012c0b3000000200001172c006404070000
:102088000041eb000000200001172c00600407004d
:10209800f0c0b3000af0b700250037003ed0bf00fb
:1020a800e14f50001f003a002300070020003700ce
:1020b80012c0b3006000b800550407000041eb00ef
:1020c8006000b80052040700f0c0b3000af0b7007f
:1020d800170037003ed0bf00e14f500013003a0010
:1020e80015000700120037000a70ef00000000001a
:1020f8000f003700000000000d003700000000004e
:102108000b00370000000000090037000000000045
:10211800070037000000000005003700000000003d
:102128000300370000000000010037000000000035
:102138000080fa00000006000200fa00881f7800fc
:102148000040eb00004f7800c08e8000d18e8000e8
:1021580018c0b30002002000831c2400a1f9070066
:102168000000e000010035000044eb000804e00036
:102178000300320030c0b300004f7800b8003700c9
:10218800e08e8000f18e800018c0b30002002000ad
:10219800831c240093f907000000e00001003500cb
:1021a8000044eb000804e0000300320040c0b30024
:1021b800004f7800aa003700a08e8000b18e800002
:1021c80018c0b30002002000831c240085f9070012
:1021d8000000e000010035000044eb000804e000c6
:1021e8000300320050c0b300004f78009c00370055
:1021f800008f8000118f800018c0b30002002000fb
:10220800031a240077f907000000e00001003500f8
:102218000044eb000804e0000300320020c0b300d3
:10222800004f78008e003700208f8000318f8000ab
:1022380018c0b30002002000031a240069f907003f
:102248000000e000010035000044eb000804e00055
:102258000300320010c0b300004f78008000370040
:102268008080800091242000810f500027003e00cc
:1022780081242000810f5000760031009104200055
:10228800810f500013003e0081042000810f500090
:102298006a003100e90f500007003e00e80f5000c7
:1022a800600031000000e00048003200e10f5000fb
:1022b8005c0032006a00370001042000810f5000e2
:1022c8004500320011042000810f50005b003200ed
:1022d8006300370091202000810f500007003e0066
:1022e80081202000810f50005a0031000020b100e9
:1022f800e10f50005a003e004d0037000024b100a5
:10230800e10f500056003e004f003700f1772200e1
:10231800810f500017003e00e1772200810f500026
:1023280046003100b1712200810f50000a003e00c2
:10233800a1712200810f50003a0031000171220082
:10234800810f50003a00320011712200810f5000b5
:102358001e0032004200370041772200810f5000f2
:102368003900320051772200810f50001a003200e4
:102378003b00370031b02200810f500008003e00ba
:1023880021b02200810f50003200310081502d0011
:1023980001004000e10f500031003e0024003700ea
:1023a800c1b52200810f50002d003900d1b522009f
:1023b800810f500024003600a1492d000100400083
:1023c800e10f500026003e00220037000040eb00dd
:1023d800004f780022003700a48e8000b58e800060
:1023e800e08e8000f18e800018c0b3000001be00ae
:1023f8000400be00fdf807000000e00001003c00fa
:102408000044eb000804e0000300320040c0b300c1
:10241800004f78001200370050c0b300004f78001a
:102428000f00370010c0b300004f78000c003700d1
:1024380020c0b300004f78000900370040c0b30047
:10244800004f78000600370050c0b300004f7800f6
:102458000300370030c0b300004f780000000000d0
:1024680012d0bf008080fb000ad0bf000080fb00b4
:102478000000e900808f50002400320012d0bf0015
:102488000af0b70070818000818180006080880038
:1024980071808800a100210091407800301f210040
:1024a8000148780060808000718080004808de0064
:1024b80080407800401f210001487800608080003b
:1024c800718080004008de0080407800501f2100a5
:1024d8000148780060808000718080004809dd0034
:1024e8004800de0000007100c808de008040780067
:1024f800601f2100014878006080800071808000a2
:1025080080407800701f2100014878004f0478004f
:102518000080fa00000006000a00fa00e401470003
:1025280080097800660047000108780068004700c5
:10253800020878008040eb000e80e800014878002f
:102548000e80e80090407800e0cfb30080c06800bb
:102558000e80e80001487800640047001000780009
:102568004880de00004078008e80e80091407800c6
:1025780080c068000e80e8000148780064004700c9
:1025880010007800004078008e80e80091407800c4
:1025980080c068000e80e8000148780066004700a7
:1025a800100078004880de00004078008e80e80047
:1025b8009140780080c068000e80e80001487800eb
:1025c8006600470010007800004078008e80e80020
:1025d8009140780080c068000e80e80001487800cb
:1025e8000000eb00000f78000b0037009e00780019
:1025f8006800470010007800010040001040780093
:102608008e80e8009140780080c068000e80e80065
:10261800014878001e0fe8006600470010007800a7
:102628009e007800808f5000f0ff35000e80e80093
:10263800104078000080fa00000006000e00fa0042
:10264800889fbe00e8014700800978006a004700bb
:10265800010878006c004700020878000f04780031
:102668000f007800800478006a00470010007800a6
:10267800660040000001e900e40047008208780095
:102688000000e8000000e8000000d10080004000e1
:102698000f007800818747000000e8000000d100a3
:1026a80000004000e6004700800878000000eb00ca
:1026b800000f780066004700100078001e004000f8
:1026c800e1cfb300014878001e0fe800680047001a
:1026d800100078004880de008040780066004700df
:1026e800100078001e004000014878001e0fe80026
:1026f80068004700100078008040780066004700b6
:10270800100078001e004000014878001e0fe80005
:102718006a004700100078004880de00804078009a
:1027280066004700100078001e004000014878004d
:102738001e0fe8006a00470010007800804078000b
:1027480066004700100078001e004000014878002d
:102758001e0fe8008000eb000e80e80001087800fa
:10276800100037000e80e800900078006c004700e9
:102778001000780001004000904078006600470093
:10278800100078001e004000014878001e0fe80085
:102798000e80e800100078008000e8000e80e80055
:1027a800010878000e80e800900078006a00470071
:1027b80010007800808f5000eaff35006c00470059
:1027c800100178006a004700900078006800470010
:1027d8001000780050ff0700e600470091007800dd
:1027e8009e804000804878006a004700100078000a
:1027f80066004000e600470011017800800078007c
:10280800020078002203070089077800880778000b
:102818004f04be000080fa00000006000200fa0023
:10282800004f780000818000e30f50002300320041
:10283800e30f500007003c00e10f50001200320087
:10284800e10f500016003c000000e00008003200d4
:1028580053003700e50f50002c003200e50f500000
:102868001c003500e60f50003a0032004c003700db
:102878001e407800e24f40004c003a001000200053
:10288800008188004e0037001e80fb004800dd00f4
:10289800108188002000200000818800480037004f
:1028a8001e80fb001181800001004000108188001b
:1028b8003000200000818800410037001e80fb00a6
:1028c8004800dd0020818800400020000081880049
:1028d8003b0037001e80fb00218180000100400082
:1028e80020818800208180000000e00003003a0079
:1028f8006000200000818800310037002630ef009a
:1029080050002000008188002d00370031818000b0
:1029180020818000808f500026003d00318180009a
:1029280020142100010040001e48780030818000fa
:102938000000e8003081880031818000208180001b
:10294800808f50001d003a00600020000081880040
:102958001b0037001e417800810221008248780060
:10296800218180001081800022142100eafe0700e6
:1029780029f0b700910221009140780028d0bf00cb
:1029880080cf500004003a0021818000108180002f
:10299800221421000c0007002030ef000800370047
:1029a8002030ef00000000000500370000000000a4
:1029b800030037000000000001003700000000009d
:1029c8000080fa00000006000600fa00000f7800f8
:1029d8000e80e800010878006400470002087800cb
:1029e8001e00780011052000810f500004003200fd
:1029f80021052000810f5000060032000a00370030
:102a08006400470010007800104078001b000700a1
:102a18000500370064004700100078001040780077
:102a280003000700000000000080fa000000060014
:102a38000200fa00004f78003ed0bf009e407800a8
:102a480080cf50000b0032001e4078000004e000e8
:102a5800030032001e407800e14f500005003a00a4
:102a68001e417800e103210082487800c0c0b3000d
:102a78000af0b7000080fa00000006000200fa0021
:102a8800004f78001e417800a1002100824878009c
:102a98000080fa00000006000000fa0013e1a90017
:102aa80011e1a9001061a8001021a9008108800087
:102ab800f0fc2f0000806000800888000a21ef00e9
:102ac8000621ef00b0be20007008880000202c000e
:102ad800600888002142800080ff2f00008060008d
:102ae8000000a000204288000108a9002108a800d1
:102af80011e1a8000080fa00000006000000fa00ba
:102b080000002000613124008600070005e1a900cb
:102b18000421a9000068a9002068a80005e1a80010
:102b28000080fa00000006000000fa000000200003
:102b3800a1472400070007001fe1a9001e21a900e2
:102b48000368a9002368a8001fe1a8000080fa0014
:102b5800000006000400fa00881f7800008fbe00fd
:102b6800f1088000f0fc2f0000806000f008880069
:102b78001e0178009e0190000068290081c1240090
:102b880060f8070018c0b30002f02f00f3772400a4
:102b980016f707000000e00001003c000044eb00cd
:102ba8000804e00054003200f1088000f0fc2f0017
:102bb800008060000040a000f00888001e01780036
:102bc8009e0190000068290081c124004df807008b
:102bd80002002000031024004af8070018c0b300c0
:102be80002f02f00f377240000f707000000e00050
:102bf80001003c000044eb000804e0003200320011
:102c0800f1088000f0fc2f00008060000050a00058
:102c1800f00888001e0178009e01900000682900d5
:102c280081c1240037f8070002002000032824008f
:102c380034f8070018c0b30002f02f00f37724001f
:102c4800eaf607000000e00001003c000044eb0049
:102c58000804e00010003200f108800000032000a2
:102c680001007000f00888001e0178009e019000a5
:102c78000068290081c1240022f807000200200012
:102c8800033824001ff80700daf607000000780070
:102c9800d0088800200037001e0178009e019000af
:102ca8000068290081c1240016f8070002002000ee
:102cb8000328240013f80700cef607000000780068
:102cc800d0088800140037001e0178009e0190008b
:102cd8000068290081c124000af8070002002000ca
:102ce8000310240007f80700c2f607000000780068
:102cf800d0088800080037001e0178009e01900067
:102d08000068290081c12400fef70700b9f6070012
:102d180000007800d00888004f0478000080fa008e
:102d2800000006000400fa00881f7800008fbe002b
:102d380021088000f0fc2f00008060002008880037
:102d48001e0178009e0190000068290081c12400be
:102d5800ecf7070018c0b30002f02f00f377240047
:102d6800a2f607000000e00001003c000044eb0070
:102d78000804e0005400320021088000f0fc2f0015
:102d8800008060000040a000200888001e01780034
:102d98009e0190000068290081c12400d9f707002e
:102da8000200200003102400d6f7070018c0b30063
:102db80002f02f00f37724008cf607000000e000f3
:102dc80001003c000044eb000804e000320032003f
:102dd80021088000f0fc2f00008060000050a00057
:102de800200888001e0178009e01900000682900d4
:102df80081c12400c3f70700020020000328240033
:102e0800c0f7070018c0b30002f02f00f3772400c2
:102e180076f607000000e00001003c000044eb00eb
:102e28000804e000100032002108800000032000a0
:102e380001007000200888001e0178009e019000a3
:102e48000068290081c12400aef7070002002000b5
:102e580003382400abf7070066f607000000780087
:102e680010088800200037001e0178009e0190009d
:102e78000068290081c12400a2f707000200200091
:102e8800032824009ff707005af60700000078007f
:102e980010088800140037001e0178009e01900079
:102ea8000068290081c1240096f70700020020006d
:102eb8000310240093f707004ef60700000078007f
:102ec80010088800080037001e0178009e01900055
:102ed8000068290081c124008af7070045f6070029
:102ee80000007800100888004f0478000080fa007d
:102ef800000006000000fa001160800080ff2f002b
:102f0800008060001060880000fa200020608800bf
:102f180023aca800238ca80011618000f03f2f008b
:102f28000080600000a0a000106188003000200030
:102f380020618800c3aca800c38ca800116680007b
:102f4800f03f2f000080600000a0a00010668800fd
:102f5800300020002066880001eca8000080fa00fc
:102f6800000006000000fa00889fbe008a9fbe008d
:102f7800848e8000958e8000608e8000718e800027
:102f880018c0b3000001be000400be0015f607001b
:102f98000000e000010035000044eb000804e000f8
:102fa8000f003200688e8000798e80008a8e800043
:102fb8009b8e80003cd0bf000080fb00cf80de00ed
:102fc80048f607000001be000a00be0068f60700c8
:102fd8000801be00d1000700808e8800918e88000d
:102fe800848e8000958e8000608e8000718e8000b7
:102ff80018c0b3000001be000400be00fbf50700c6
:103008000000e00001003c000044eb000804e00080
:103018000f003200688e8000798e80008a8e8000d2
:103028009b8e80003cd0bf000080fb00cf80de007c
:103038002cf607000001be000a00be0043f6070098
:103048000801be009b000700808e8800918e8800d2
:10305800808e8000918e800018c0b3006011b80087
:10306800e0f507000000e000010035000044eb0037
:103078000804e00004003200c3cca90024eea80034
:10308800c3eca80003003700c3eca90024cea800b5
:10309800c3cca800808e8000918e80006f0007004e
:1030a8000200200003222400f5f70700f2f50700cc
:1030b8000000780030668800448e8000558e8000bd
:1030c800208e8000318e800018c0b3000001be0041
:1030d8000400be00c3f507000000e0000100350051
:1030e8000044eb000804e0000f003200288e800046
:1030f800398e80004a8e80005b8e80003cd0bf00f5
:103108000080fb00cf80de00f6f507000001be005e
:103118000a00be0016f607000801be007f0007007f
:10312800408e8800518e8800448e8000558e800025
:10313800208e8000318e800018c0b3000001be00d0
:103148000400be00a9f507000000e00001003c00f3
:103158000044eb000804e0000f003200288e8000d5
:10316800398e80004a8e80005b8e80003cd0bf0084
:103178000080fb00cf80de00daf507000001be000a
:103188000a00be00f1f507000801be00490007006b
:10319800408e8800518e8800408e8000518e8000bd
:1031a80018c0b3006011b80090f507000000e000f7
:1031b80001003c000044eb000804e0000400320079
:1031c80023cca90015eea80023eca80003003700c3
:1031d80023eca90015cea80023cca800408e8000bf
:1031e800518e80001d0007000200200003222400e9
:1031f800a3f70700a0f507000000780030618800f9
:103208004f05be004f04be000080fa000000060013
:103218000600fa00008fbe006400470002487800ec
:1032280064004700104078000004e00005003a0000
:103238001e0178009e019000228e8800338e88003f
:10324800040037001e0178009e019000628e8800fd
:10325800738e88000080fa00000006000400fa005f
:10326800881f7800008fbe0018c0b3006011b80036
:103278001e0078009e0090005cf507000000e0004a
:1032880001003d000044eb000804e00003003200a8
:103298001e0078009e009000030037001e00780092
:1032a8009e00900001f0a2004f0478000080fa0010
:1032b800000006000800fa00881f7800008fbe0092
:1032c800640047000288be0018c0b30064004700cd
:1032d80010017800900190001e0078009e00900078
:1032e80042f507000000e00001003c000044eb004c
:1032f8000804e000030032001e0078009e009000e1
:103308000300370064004700900090001000780028
:103318004f0478000080fa00000006000800fa0058
:10332800881f7800008fbe00640047000288be0036
:1033380018c0b300640047001001780090019000a5
:103348001e0078009e00900026f507000000e000af
:10335800010035000044eb000804e00003003200df
:103368001e0078009e0090000300370064004700ac
:1033780090009000100078004f0478000080fa0058
:10338800000006000c00fa00881f7800008fbe00bd
:10339800640047000288be00680047000488be0039
:1033a80018c0b30068004700100178009001900031
:1033b8001e0078009e0090000cf507000000e00059
:1033c80001003c000044eb000804e0000400320067
:1033d80068004700301f7800201778000f0037007a
:1033e80018c0b300640047001001780090019000f5
:1033f8001e0078009e009000faf407000000e0002c
:10340800010035000044eb000804e000030032002e
:1034180064004700301f7800201778001e007800ed
:103428009e0090004f0478000080fa00000006001b
:103438000400fa00008fbe00b2fd200093042400af
:103448001e0078009e0090002ef607000200200063
:10345800433324000af707000080fa000000060042
:103468000400fa00008fbe00b2fd2000930424007f
:103478001e0078009e00900001f70700020020005f
:10348800433324001ff607000080fa0000000600fe
:103498000600fa000e81e800000978006400470081
:1034a800010878000040eb00004f78005700070043
:1034b800e400470091007800810f500013003400a9
:1034c8000040eb00004f7800070037001e80fb002b
:1034d8008e80e8009100780000804000104078005d
:1034e8000c0007001e4fe8001e80fb00e4004700a8
:1034f80091007800810f5000f4ff35002e0007007e
:103508000004e00001003a00220007000080fa00f1
:10351800000006000200fa00004f7800a181800038
:1035280020042100010040001e487800a08180008e
:103538000000e800a0818800a1818000f007200039
:10354800808f5000010034003430ef000080fa0012
:10355800000006000200fa0091818000200421008a
:1035680001004000104f7800908180000000e800c2
:103578009081880091818000f0072000808f5000a2
:10358800010034003230ef001e4078000080fa005d
:10359800000006000200fa0010c0b30036f0b700c1
:1035a800ecff0700004f78001e80fb002011880008
:1035b8000080fa00000006000000fa0036d0bf00c4
:1035c8000080fa00000006000200fa00a1818000d5
:1035d80090818000808f500004003500a181800018
:1035e80090818000008f500005003700a181800085
:1035f800908180000080500001082000010f4000e9
:103608001e0078000080fa00000006000000fa00a2
:10361800edff070001082000008050000080fa003c
:10362800000006000000fa0021e3a9002143a800d9
:1036380001198000f0cf2f00008060000019880079
:103648002043a90001198000000e2000010070002d
:103658000019880011198000f0ff21000080600027
:10366800101988002343a80011198000f0cf2f00fb
:1036780000806000101988001119800030f82f00b0
:10368800008060000040a000101988002203a900f3
:103698002223a90025e3a900f0c0b30024e3b70062
:1036a80021198000f00f2e008080600000f02000bb
:1036b80001007000201988003303a9002e0ea8000d
:1036c8002f6ea8006f2ea8001e2ea8004feea8008f
:1036d80030c3a8003163a8002e03a8003063a800f7
:1036e80031e3a8004119800000fc2f000080600031
:1036f8004019880028e3a90001a8a90021a8a8006a
:1037080021e3a8000080fa00000006000000fa008b
:103718002023a8000080fa00000006000000fa003c
:10372800600121000080fa00000006000000fa0095
:103738001ed0bf000080fa00000006000000fa005a
:103748001e70ef000080fa00000006000200fa0078
:10375800004f78003b0007000000e0000c00340038
:10376800c1818000200c2100010040001e48780023
:10377800c08180000000e800c0818800c18180000d
:10378800f0072000808f5000010034003830ef002f
:103798000080fa00000006000200fa00d1818000d3
:1037a800200c210001004000104f7800d0818000db
:1037b8000000e800d0818800d1818000f007200057
:1037c800808f5000010034003a30ef001e4078002e
:1037d8000080fa00000006000000fa00c1818000a5
:1037e800d0818000808f50000200320010c0b300ea
:1037f800010037000040eb000080fa0000000600de
:103808000200fa00c1818000d0818000808f5000c2
:1038180004003500c1818000d0818000008f5000f5
:1038280005003700c1818000d081800000805000f1
:1038380001082000010f40001e0078000080fa00f7
:10384800000006000000fa00edff07000108200054
:10385800008050000080fa00000006000000fa0016
:103868002002a9000111800090ff2f000080600055
:103878000011880020a2a9002062a800500520009d
:103888004011880023a2a90023e2a9000188a90009
:103898002188a80011118000f0f32f00008060003b
:1038a800101188000168a9002168a80021e2a80079
:1038b8002342a8000080fa00000006000600fa0073
:1038c8000e81e800000978006400470001087800cc
:1038d8000040eb00004f78000040eb00004f7800fc
:1038e80011003700000000001111800000202000a6
:1038f800008060000000e000fbff3a000e80e80056
:1039080010007800104078000080fb00201188002b
:103918000e80e800100078008000e8000e80e800c3
:10392800010878001e4fe8001e80fb00e4004700f5
:1039380091007800810f5000eaff35000080fa00fe
:043948000000060075
:020000040000fa
:10394c00141000000c000000800000003c1000006f
:10395c00020000008200000001000000c211000003
:10396c0026000000800000002c1000000600000063
:10397c0080000000e8110000080000008200000038
:10398c00426f6e006a6f750072000000f01100004b
:10399c00080000008000000000100000140000006f
:1039ac008000000042100000800000008000000039
:1039bc00321000000600000080000000c210000061
:1039cc00800000008000000038100000040000009f
:1039dc008000000042110000800000008000000008
:1039ec003e100000020000008200000001000000f8
:1039fc00201000000c0000008000000040100000af
:0c3a0c000200000080000000000000002c
:020000040000fa
:103a18000000fa00f0032000303a8800213a8000c4
:103a2800f0f32f0000806000203a8800213a8000df
:103a380000fe2f00008060000000a000203a8800ef
:103a48001200200080072000a10920003374200004
:103a5800804978008149780082497800103a8000ce
:103a6800000178000200a000600420007105200019
:103a780023742000804978008149780082497800c1
:103a880000000000113a80000000270080806000dc
:103a980000002100808f5000faff3a00000000006b
:103aa800113a800000022000008060000000e00061
:103ab800fbff32000080fa00000006000000fa0058
:103ac8000e2eef001e2eef002e2eef003e2eef00e2
:103ad8004e2eef005e2eef006e2eef00214ea90055
:103ae80060cea90060eea90011cea90011eea900d0
:103af80020cea90020eea900200ea800216ea80063
:103b0800612ea800102ea80041eea80021368000e2
:103b180000f82f00008060008001b3002036880084
:103b28001134800000fc2f00008060000000a0001d
:0c3b3800103488000080fa000000060035
:020000040000fa
:02000004000af0
:04afe000cfff00009f
:020000040000fa
:02000004000af0
:04afe400ffff00006b
:020000040000fa
:02000004000af0
:04afe8007fff0000e7
:020000040000fa
:02000004000af0
:04afec005fff000003
:020000040000fa
:02000004000af0
:04aff00038ff000026
:020000040000fa
:02000004000af0
:04aff400ffffff005c
:00000001FF
