:020000040000fa
:080000000002040000000000f2
:020000040000fa
:040008000a040000e6
:020000040000fa
:04000c000a040000e2
:020000040000fa
:040010000a040000de
:020000040000fa
:040014000a040000da
:020000040000fa
:040018000a040000d6
:020000040000fa
:04001c000a040000d2
:020000040000fa
:040020000a040000ce
:020000040000fa
:040024000a040000ca
:020000040000fa
:040028000a040000c6
:020000040000fa
:04002c000a040000c2
:020000040000fa
:040030000a040000be
:020000040000fa
:04003400380300008d
:020000040000fa
:040038000a040000b6
:020000040000fa
:04003c000a040000b2
:020000040000fa
:040040000a040000ae
:020000040000fa
:040044000a040000aa
:020000040000fa
:040048003003000081
:020000040000fa
:04004c000a040000a2
:020000040000fa
:040050000a0400009e
:020000040000fa
:04005400c6030000df
:020000040000fa
:040058009c03000005
:020000040000fa
:04005c00fa020000a4
:020000040000fa
:040060000a0400008e
:020000040000fa
:040064000a0400008a
:020000040000fa
:040068000a04000086
:020000040000fa
:04006c000a04000082
:020000040000fa
:040070000a0400007e
:020000040000fa
:040074000a0400007a
:020000040000fa
:040078000a04000076
:020000040000fa
:04007c000a04000072
:020000040000fa
:040080000a0400006e
:020000040000fa
:040084000a0400006a
:020000040000fa
:040088000a04000066
:020000040000fa
:04008c000a04000062
:020000040000fa
:040090000a0400005e
:020000040000fa
:0400940072030000f3
:020000040000fa
:040098000a04000056
:020000040000fa
:04009c000a04000052
:020000040000fa
:0400a0000a0400004e
:020000040000fa
:0400a4000a0400004a
:020000040000fa
:0400a8000a04000046
:020000040000fa
:0400ac000a04000042
:020000040000fa
:0400b0000a0400003e
:020000040000fa
:0400b4000a0400003a
:020000040000fa
:0400b8000a04000036
:020000040000fa
:0400bc000a04000032
:020000040000fa
:0400c0000a0400002e
:020000040000fa
:0400c4000a0400002a
:020000040000fa
:0400c8000a04000026
:020000040000fa
:0400cc000a04000022
:020000040000fa
:0400d0000a0400001e
:020000040000fa
:0400d4000a0400001a
:020000040000fa
:0400d8000a04000016
:020000040000fa
:0400dc000a04000012
:020000040000fa
:0400e0000a0400000e
:020000040000fa
:0400e4000a0400000a
:020000040000fa
:0400e8000a04000006
:020000040000fa
:0400ec000a04000002
:020000040000fa
:0400f0000a040000fe
:020000040000fa
:0400f4000a040000fa
:020000040000fa
:0400f8000a040000f6
:020000040000fa
:0400fc000a040000f2
:020000040000fa
:040100000a040000ed
:020000040000fa
:040104000a040000e9
:020000040000fa
:040108000a040000e5
:020000040000fa
:04010c000a040000e1
:020000040000fa
:040110000a040000dd
:020000040000fa
:040114000a040000d9
:020000040000fa
:040118000a040000d5
:020000040000fa
:04011c000a040000d1
:020000040000fa
:040120000a040000cd
:020000040000fa
:040124000a040000c9
:020000040000fa
:040128000a040000c5
:020000040000fa
:04012c000a040000c1
:020000040000fa
:040130000a040000bd
:020000040000fa
:040134000a040000b9
:020000040000fa
:040138000a040000b5
:020000040000fa
:04013c000a040000b1
:020000040000fa
:040140000a040000ad
:020000040000fa
:040144000a040000a9
:020000040000fa
:040148000a040000a5
:020000040000fa
:04014c000a040000a1
:020000040000fa
:040150000a0400009d
:020000040000fa
:040154000a04000099
:020000040000fa
:040158000a04000095
:020000040000fa
:04015c000a04000091
:020000040000fa
:040160000a0400008d
:020000040000fa
:040164000a04000089
:020000040000fa
:040168000a04000085
:020000040000fa
:04016c000a04000081
:020000040000fa
:040170000a0400007d
:020000040000fa
:040174000a04000079
:020000040000fa
:040178000a04000075
:020000040000fa
:04017c000a04000071
:020000040000fa
:040180000a0400006d
:020000040000fa
:040184000a04000069
:020000040000fa
:040188000a04000065
:020000040000fa
:04018c000a04000061
:020000040000fa
:040190000a0400005d
:020000040000fa
:040194000a04000059
:020000040000fa
:040198000a04000055
:020000040000fa
:04019c000a04000051
:020000040000fa
:0401a0000a0400004d
:020000040000fa
:0401a4000a04000049
:020000040000fa
:0401a8000a04000045
:020000040000fa
:0401ac000a04000041
:020000040000fa
:0401b0000a0400003d
:020000040000fa
:0401b4000a04000039
:020000040000fa
:0401b8000a04000035
:020000040000fa
:0401bc000a04000031
:020000040000fa
:0401c0000a0400002d
:020000040000fa
:0401c4000a04000029
:020000040000fa
:0401c8000a04000025
:020000040000fa
:0401cc000a04000021
:020000040000fa
:0401d0000a0400001d
:020000040000fa
:0401d4000a04000019
:020000040000fa
:0401d8000a04000015
:020000040000fa
:0401dc000a04000011
:020000040000fa
:0401e0000a0400000d
:020000040000fa
:0401e4000a04000009
:020000040000fa
:0401e8000a04000005
:020000040000fa
:0401ec000a04000001
:020000040000fa
:0401f0000a040000fd
:020000040000fa
:0401f4000a040000f9
:020000040000fa
:0401f8000a040000f5
:020000040000fa
:0401fc000a040000f1
:020000040000fa
:040200000a040000ec
:020000040000fa
:040204000a040000e8
:020000040000fa
:040208000a040000e4
:020000040000fa
:04020c000a040000e0
:020000040000fa
:040210000a040000dc
:020000040000fa
:040214000a040000d8
:020000040000fa
:040218000a040000d4
:020000040000fa
:04021c000a040000d0
:020000040000fa
:040220000a040000cc
:020000040000fa
:040224000a040000c8
:020000040000fa
:040228000a040000c4
:020000040000fa
:04022c000a040000c0
:020000040000fa
:040230000a040000bc
:020000040000fa
:040234000a040000b8
:020000040000fa
:040238000a040000b4
:020000040000fa
:04023c000a040000b0
:020000040000fa
:040240000a040000ac
:020000040000fa
:040244000a040000a8
:020000040000fa
:040248000a040000a4
:020000040000fa
:04024c000a040000a0
:020000040000fa
:040250000a0400009c
:020000040000fa
:040254000a04000098
:020000040000fa
:040258000a04000094
:020000040000fa
:04025c000a04000090
:020000040000fa
:040260000a0400008c
:020000040000fa
:040264000a04000088
:020000040000fa
:040268000a04000084
:020000040000fa
:04026c000a04000080
:020000040000fa
:040270000a0400007c
:020000040000fa
:040274000a04000078
:020000040000fa
:040278000a04000074
:020000040000fa
:04027c000a04000070
:020000040000fa
:040280000a0400006c
:020000040000fa
:10040000ef4021000eff2c000e01880000000000cc
:10041000000020000000e000020032000001200087
:100420002002880014000700fc0007000000e00024
:1004300003003a00e0a12200010020000200370082
:100440000000200001002000810f70000100320038
:100450000f000700000020000000e0000200320052
:100460000000020000000000c419020000000000ab
:100470000040da000000fe00200020000000e00044
:1004800002003200100020009001880000000600e9
:10049000a1028800800478000000eb001f003700f4
:1004a000e284440054a0b4009905ba00e2844400f8
:1004b00054a0b4009906ba00e284440054a0b400e9
:1004c0000006eb00476fde00fd07b200ae018800ba
:1004d000636ce10003003a000ad801000000eb0061
:1004e0000e003700606ce10008003a00004deb00a0
:1004f0000a05e800020039003420ec000af0a000f0
:100500008b05e900f9ff3e00040037006168e10057
:10051000010032000086eb000b00070019c7ba008b
:100520000e04e0001905ba0003003a000a00e000da
:10053000dbff3a0000000600fe07b200ae028800b2
:100540008a047800f5ff37000cd0a300e20f4d00bd
:100550001c003b0089027800354dba000a05e8000e
:10056000020039003420ec000af0a0008b05e900fd
:100570000f003200254dba000a05e80002003900dc
:100580003420ec000af0a0008b05e90008003200de
:100590000c00e0000600320015cdba000a05e800a4
:1005a000020039003420ec000af0a0008b05e900bd
:1005b0008984e80054a0b4000b00e000e2ff3a0098
:1005c000000006009902ba00055d78008b05e9007d
:1005d000f7ff3200c82ade00055d78008b05e900d0
:1005e000f3ff32000c00e000f1ff320019ddba0029
:1005f000eeff3700809fbe000000fa0001a8a900ae
:1006000001188000a0052100010878001118800061
:10061000a00521000080e800010878002118800072
:10062000a005210064004000010878003118800016
:10063000a0052100660040000108780041188000f4
:10064000a0052100680040000108780010c0b30038
:1006500062f0b7000080fa004f00be0000400600c4
:100660000000fa000108a9000080fa00004006001e
:100670003600f800809fbe00829fbe00849fbe00af
:10068000869fbe000000fa000068a900ad120700b6
:10069000591607008f110700808380000000e800d2
:1006a0008083880081838000900120000001780011
:1006b000110009008200d8008000fd000000e00069
:1006c00001003a00581207000080fa004f03be00f4
:1006d0004f02be004f01be004f00be003600f900c1
:1006e000004006003600f800809fbe00829fbe00da
:1006f000849fbe00869fbe000000fa000368a90028
:1007000090838000a183800061004000e080480069
:1007100090838800a18388005b0c07000080fa00aa
:100720004f03be004f02be004f01be004f00be008f
:100730003600f900004006003600f800809fbe0039
:10074000829fbe00849fbe00869fbe000000fa000c
:100750000188a900c1838000b0838000808f500091
:1007600002003200c6150700010037007a70ef0062
:100770000080fa004f03be004f02be004f01be00d2
:100780004f00be003600f900004006003600f800b9
:10079000809fbe00829fbe00849fbe00869fbe00d9
:1007a0000000fa000168a9001011800064006000d8
:1007b0000000e000010032002242a9001011800078
:1007c000620060000000e000060032002222a90062
:1007d0000500370030118000004078001616070031
:1007e000010037000000000010118000610060006f
:1007f0000000e000f7ff3a000080fa004f03be005f
:100800004f02be004f01be004f00be003600f9008f
:10081000004006000040da000000fe000000050075
:1008200014002000ad033700f4ff2f00ab033700a6
:100830000001be003f0007000470a70003f0a10004
:100840006509b100160032000d0035006828e1008e
:1008500006003500f0ff2f00f1ff27000300e00045
:1008600013003b00010028000000050000004000cc
:10087000818048008502e900fcff3a00080037004b
:10088000f88f420002003c008000eb0000000500f1
:100890008100d1000080d3008502e800fcff3a000f
:1008a0000300e00002003b0060001000e080180040
:1008b000000006000001be001e0007000470a70033
:1008c00003f0a10003f8a30013003a006509b1008a
:1008d00010003200090035006928e10002003500ef
:1008e0000100280000000500000040008180480051
:1008f0008502e900fcff3a0000000600f88f420084
:10090000050035008100d1000080d3008502e80099
:10091000fcff3a00000006008000eb00000005002c
:100920004f89de0082017800870337006011b8002c
:1009300095033700c70ade00f107b200f50fb200d9
:1009400008003200e1cf4200020032000170a00036
:1009500024000500810f700001003200040805002a
:1009600044000500810f700002003a0014000500e9
:100970008502e9000000400081c04800fcff3b0008
:100980000170a0002400050007f82700078361001c
:100990000638e10004003a00f70720008783610071
:1009a0008703710001003a0003f0a200889fbe0097
:1009b0008a9fbe008c9fbe00470ade000480a10013
:1009c000c71ade000580a100070028000785600027
:1009d00087856100f70f20000720e1009e003200ac
:1009e0000728e1009c003200010678000400e000c6
:1009f000b4003200f7072000878060000170a0007b
:100a00000500e000c0003200f70720008781610088
:100a10000370a000050652000f003a000b50e100e1
:100a20000b0032000308e10002003a000200e1007e
:100a30007e0032000204500083845800040031001c
:100a40000001fd008101fd008402fd008a05fd001a
:100a50006044b800210037000520e10005003d009a
:100a60000001fd008101fd008402fd008a05fd00fa
:100a7000050652007a60e100050035000170a10012
:100a80004722dd00848070008a8070006300370098
:100a90006044b800ef02660007ff2f0007066600fb
:100aa0000500e00006003400f08312008714dd002a
:100ab0000511de00071bdd00060171008519de004f
:100ac0007060e100050035000904780082047800b8
:100ad000030178008001eb00700656000b50e10026
:100ae00003003a0002004000838048000400370001
:100af00060041400e0841c00020058008380580049
:100b00000188a300060032008100d1000080d300dc
:100b10008984d3000884d3000402e800270037004a
:100b20000178a30025003a000100e0000300320034
:100b30008186cf00698656000a0037008c002000ad
:100b40000000e00004003a00090078008804780002
:100b50000004eb00700252008086cf000d064600b4
:100b60000c06e9007060e1000600350080007800a6
:100b700009007800880478000004eb007006560035
:100b8000700252000c00e0000c0034008c08dd0004
:100b9000f00316000703de00868070000c00dd0005
:100ba000074bde00060070008c4cdd000743de00c2
:100bb000868474000c44dd000c0252006120e100c8
:100bc0002000350061016000070028008781640073
:100bd000f7ff270087836400070374000300e00029
:100be0000600320082037300040032000000e800b7
:100bf000e08048000188a3000e003a00f70f2000b3
:100c00000720e1004a003d000170a1004722dd00fd
:100c1000810072008a8070000000be004f06be0096
:100c20004f05be004f04be00000006006000b80083
:100c3000faff37008100d1000080d3000402e800f1
:100c4000eeff37000401780089017400a10107005c
:100c50008a807000f1ff3700f70107000702780073
:100c60000001fd008101fd00f3010700870278000b
:100c7000850372000778a300040032000001fd0024
:100c80008101fd0006020700e4ff370085036200d2
:100c90000768a300080032000b50e1000300320097
:100ca000f0ff2f00f1ff2700dcff37000001fd00ff
:100cb0008101fd00d9ff37000468a300d7ff32008f
:100cc000faff3700f8ff2700888360000b003a0026
:100cd0000000e00009003a0083036400828373008f
:100ce000020032000200be00ccff37000b50e100d2
:100cf000ceff3a000200be00c8ff370014002000fb
:100d0000810064003eff3700f8ff27008883610000
:100d100004003a000200e00002003a008c00780073
:100d2000beff3700150020008301640039ff370043
:100d300001f827000000200081007500b7ff370090
:100d4000889fbe008a9fbe008c9fbe001b002000b3
:100d50000202be000586680006002800060666003e
:100d60004709de00f20fb200820032000243e800c1
:100d700080003200c729de00f30fb2007d00320090
:100d80000343e8007b003200f107b2000170a000cd
:100d9000f507b2000570a000c708dd004903de00ba
:100da000868070004700dd00c72add004923de0091
:100db000868272004722dd000305510004035000c3
:100dc0008583580003003100000040008180480006
:100dd0000a05e9008c1f78008a9fbe0004005000bd
:100de000858058000402420085824a0000004000cd
:100df000818048000005eb000004be006033b800ad
:100e00000406be000d48e100560031001100090043
:100e10004dccd8000c01b8000d02b800848141000f
:100e200060824a008283530003045c0084845c0077
:100e300060055d000a00e00025003a0080057800aa
:100e40000d40e1004900310088007800070078007b
:100e5000110009004d88d8000c01b8000d02b8003f
:100e60008481410060824a006003110083835b003b
:100e700004045c00e0845c000900e00021003a000a
:100e80004f01be000300e0002b003200e3016000d0
:100e9000070673008c81710001003200640070004d
:100ea0004200de004e5edd000c007000c258de0025
:100eb00001e0a00083010700cf017800818071006c
:100ec0004f06be004f05be004f04be0000000600e6
:100ed0008c8343000d044c00e0844c0060054d0001
:100ee0000000e9000a00e000d4ff32008c834300d8
:100ef0000d044c00e0844c0060054d000000e9004a
:100f0000ceff37000c0343008d834b0060044c0080
:100f1000e0844c000000e9000900e000d8ff320046
:100f20000c0343008d834b0060044c00e0844c00b4
:100f30000000e900d2ff37004200de004e5edd0017
:100f40000c007000c258de0001e0a000cf01780064
:100f50000300e000daff320060001000e0801800bb
:100f6000d7ff3700f0ff2f00aaff3700f0ff2f0058
:100f7000b9ff37000404be002f0107008706780080
:100f80000004fd008104fd002b01070007836600bb
:100f90000678a300030032000960a7000800be0025
:100fa0002c0037000d78a300020032000800be00bc
:100fb000280037000778a30026003a0001f0a100be
:100fc00009f0a1000668a30003003200f1ff27002a
:100fd000f0ff2f00baff37000d68a30003003200b6
:100fe0000800be008c807000b5ff37000768a300c2
:100ff00007003a000648a30003003200f1ff270073
:10100000f0ff2f00aeff37000d48a30003003200b1
:101010006000b8008c807000a9ff37000748a3006b
:101020000400320001f82700000020008c807000ce
:10103000a3ff3700760107000004fd008104fd00d6
:1010400002057800720107000802be008a017800dc
:1010500059ff37000160a00012022000228488009e
:1010600097ff37000100e000120032000500e000a9
:1010700010003200889fbe008a9fbe008c9fbe0079
:101080000006eb0001f8a30003003200600010002e
:10109000e08018000cf0a00005f8a3000300320067
:1010a00060021200e0821a000cf0a2008005eb0042
:1010b00041ff37006000b8000200050003836800ac
:1010c0000700280007036300470ade000480a10030
:1010d000c71ade000580a100f70f20000720e100fd
:1010e000420032000728e10040003200889fbe0025
:1010f0008a9fbe008c1f7800f107b200f307b20090
:101100000400e000640032000170a0000500e0006f
:10111000680032000370a00085054200eb07b100b3
:101120000204b8000302b8008484440060854a00c9
:10113000020ab800848444000a854a00030ab80001
:1011400004054500040033000804d0008984d2005f
:101150000a85d2008b05e9006158e1003d003500a9
:10116000021020000901610003082000898161004c
:10117000f70720008783640008867300c84cde00f0
:10118000c853dd00878474004855de000300e0008a
:101190000600320082037600040032008904e80071
:1011a00060054d000a88a3000c003a00f70f2000ec
:1011b0000758e10044003d000a70a100c75ddd0052
:1011c0000a8575008a007300090078004f067800d0
:1011d0004f05be004f04be00000006000a05d10006
:1011e0008984d3008b05e800f0ff3700881f780062
:1011f0000604780090000700070278000001fd0057
:101200008101fd008c0007008702780085037200d1
:101210000778a300050032000001fd008101fd00f8
:101220009f0007004f04780000000600850372004d
:101230000748a30003003200f0ff2f00f1ff270052
:10124000f8ff37000000200001f8270088807000b8
:10125000f4ff3700880178004848dd008081710084
:101260004848de00c850dd0001007000c850de00b4
:10127000060478000b0178001600070088807000d3
:10128000d2ff37000500e000050032001700200003
:101290003a0007009dff370081037000f9ff3a0014
:1012a000860078004f0678004f05be004f04be0050
:1012b0000000050083037100f9ff320027002000c1
:1012c0002e00070094ff370001f827008680700089
:1012d000f4ff37000100e000260032006101110038
:1012e0007810e10023003c006022b8007010e1009b
:1012f0000400350080027800010078008000eb00d7
:10130000700151000200e000090034007003110078
:10131000062add00822ade008603dd008782720055
:101320000200de00860bdd00070070008208de0090
:1013300084817100f4ff27000482620084817100bf
:1013400004002800848262006102600005f0a600ab
:101350000000060004827100070032000000e8006f
:10136000e0804800000006000002be006000b800f7
:10137000efff37006000b80000000600889fbe0045
:101380000004eb006138e10016003a000100e000c3
:1013900008003a00c800de004800dd008800200098
:1013a0000100e00003003a00c800de004800dd0054
:1013b000680444008184cf00e984540006003400ae
:1013c0008908dd00f08314008703de008780700049
:1013d0000900dd0009044400610214004f04be004e
:1013e000000006000300e00008003a00c811de001b
:1013f0004811dd00880020000300e00003003a00ef
:10140000c811de004811dd00680444008384cf0069
:10141000e9845400060034008919dd00f0831400cb
:101420008713de00878171000911dd000904440083
:10143000e1021400e9ff37002700200001f0a700b7
:1014400017002000470bde00f60fb2000400320048
:101450000643e8000a0032004702b300000006001d
:1014600001037800f607b2000603700002003a009c
:101470000703b300000006008702b3000000060067
:1014800001037800f607b200060370000200320084
:101490000770a000000006000760a0000000060022
:1014a0000478a300040032000578a3000300320092
:1014b0000168a30001003a000200be000160a00024
:1014c0000000060081017000270032008002eb005e
:1014d00001f8a3000300320060001000e080180053
:1014e00015002000f4072000020242002000340012
:1014f000f703200087036000060420000003630058
:1015000002082000000161004700de00c909dd007b
:1015100000807100c708de000600e000080032000d
:1015200087037100060032001000b0000180b00097
:101530000188a30002003200c108de000402e800b6
:10154000f107b200f30f20000320e10003003d008b
:101550004722dd00810072002900370001f82700d2
:101560000000eb00260037006000b8000000060015
:10157000680212007f20e100020034006000b80021
:101580001f0037006011b8007020e1000400350032
:1015900080017800010078008000eb0070025200aa
:1015a0000400e00009003400f00312000719dd0018
:1015b0008419de000703dd00868171000400de006f
:1015c000070bdd00060070008408de00f7ff27002f
:1015d0008383630087037100060028000303630010
:1015e000070032000700e00003003a0061016000dc
:1015f00002817300020032001000b0000180b000d0
:101600000500a6000000060001f0a0000000060092
:101610004f0ade004709de00f107b200f20fb20008
:101620000b003200f207b1000170a000c708dd0016
:10163000c901de00838070004700dd000400a600c1
:101640000000060060001000e080180000000600a6
:10165000810f700001003a00000006008182cf0077
:101660000500e00010003e008082cf00ee824200c4
:101670007028e1000400390007003e008000780077
:101680000000eb000e003700708312008600de00c1
:101690000500dd000a003700708352008600dd007f
:1016a0000000eb0006003700e28252008508dd00f2
:1016b000708312000603de00868070000500dd00e6
:1016c0007507b0000501ea000400a600000006004e
:1016d00060001000e080180000000600889fbe0037
:1016e0008a9fbe00841f78007c0007004f007800ae
:1016f00011003300f0ff2f00838f6c0006003b00c9
:10170000040565000a00a7000800370009f0a600dc
:101710001000200008003700820f5400838f5c0007
:10172000030039001000200001003e0000002000ee
:1017300009f0a7000000ea004f05be004f04be00fc
:101740000000e00000000600881f78000304780015
:101750000300e00007003d0060001000e08018007a
:1017600060011900e081190002003b0001f02d002a
:10177000030037000400070008f0a70001f0a000f4
:101780004f04780000000600889fbe008a9fbe00bc
:101790000082700004027100048271002600320091
:1017a0000004be000200be006011b8006b092000fa
:1017b000950220000182cf000a0039000541b100e6
:1017c0000082cf00070039000541b1000982cf0037
:1017d000040039000541b1000882cf000100390042
:1017e0000541b10005425200120032000a003b00e0
:1017f00082817100610164008100d1000080d3000a
:101800008984d3000884d3008b05e8000442e800f3
:10181000f7ff3a00070037000804440089844c00b1
:1018200000004800818048008b05e9000442e9007f
:10183000f9ff3a00030007004f05be004f04be0049
:101840000000060081002000618055000b003d0073
:101850000b00200061fe2f000100e1001d0034009c
:1018600082817100610164008904d1000884d30081
:101870000000e800faff3a007100200061006400f7
:10188000030070000200600009003200610444009f
:10189000e0844c000988a500050032008b05e800b3
:1018a0006808e10002003a008904d1000884d300ee
:1018b000f20f20000258e10005003d00c75ddd0089
:1018c000f907b20089807500080078000000060062
:1018d0000bf827008b007800000005000004be0014
:1018e00014fc07000003be000405be000200be0099
:1018f00010fc0700844f7500000006000800fa0085
:101900000002be008501780003f0a100000178000c
:10191000a6fd200097f42300860f5100878f590001
:1019200008003e00f4ff2f00f5972300840f5100bc
:10193000858f590055003e000000200001f823006b
:10194000600037004f0ade0005002000163d25002c
:10195000b7072400860f5100878f590019003e00f9
:1019600036be2c0067012400860f5100878f590076
:101970000a0036000400e00004003200b2fd20003e
:101980009304240009fc070048003700b2fd200042
:1019900093042400fcfb0700440037000400e0002f
:1019a00004003200b2fd200093fc2300fffb07007f
:1019b000430037000001be00b0fd200091fc230071
:1019c00019003700561d2300270e2400860f5100f2
:1019d000878f590016003e00f6dd2e00f70a24001e
:1019e000860f5100878f59000a0036000400e0007e
:1019f00004003200b2fd2000930c2400ebfb070032
:101a000022003700b2fd2000930c2400defb07000b
:101a10001e0037000400e0000100320001f0a200c7
:101a200042be2c0063092400d7fb070024003700c6
:101a3000f4ff2f00f5f72700840f5100858f590020
:101a4000030036000001be00cffb07001d00370079
:101a500068815700650107006011b80063016000ec
:101a6000e10f5100e08f59000a003200e20f5100ef
:101a7000e08f59000b003200e00f5100e08f590059
:101a80000d003a004fb89700dfb897002901070012
:101a90000c0037004fb89700dfb8970001f0a200a4
:101aa000070037004fb89700dfb897002101070003
:101ab00001f0a200030037004fb89700dfb897008d
:101ac000a60107000080fa000000060000000600e2
:101ad0000400fa00889fbe008a9fbe008c9fbe0053
:101ae0000004be000205be000206410083864900d4
:101af000e00f5600e08f5e00140032000200be00ce
:101b000082bf9f0093bf9f00f0ff07008102780013
:101b100005f0a100000278000000200001f8270075
:101b20000fb997009fb99700800f5200818f5a001c
:101b300006003e000802be00474bde000700200002
:101b40000680fb00e14f430005003a000800be009c
:101b50005afd07000001be0079fc070009003700ac
:101b60000801440089814c008c0f51008d8f590071
:101b700006003e0074003a006011b8000800be0084
:101b80004efd07000004be006f0037000000e000bb
:101b900013003a004949dd00c741de0083017100ae
:101ba0004941dd00030037000000e9000201410067
:101bb00083814900e00f5100e08f5900faff3d009a
:101bc000e10010000401be008100e90003003300c1
:101bd0000201410083814900fbff37000400370008
:101be00085017800f307b200080178000370a000b7
:101bf000475bde000700200086007800f10fb2008e
:101c000012003a00495bdd00c753de008703730012
:101c10004953dd00030037008100e900060343005b
:101c200087834b00e00f5300e08f5b00faff3d001d
:101c3000618310000603e900030033000a05450034
:101c40008b854d00fbff3700100037008b037800b9
:101c5000f707b2000a0378000605be000b70a0006b
:101c60000a003700e00f5300e08f5b0004003500ee
:101c7000e00f5300e08f5b00bfff32000601be00a3
:101c800002014100838149000000e9000a0351007c
:101c90008b835900810f5000f2ff3c00e00f53008e
:101ca000e08f5b0003003d00090037000601be0025
:101cb00007003700e00f5300e08f5b00fbff3a00a6
:101cc000adff370002014100838149000000e900b7
:101cd000471bde0007002000e00f5300e08f5b0091
:101ce000f8ff32000000e0000a0034000600200087
:101cf00007f82f000201430083814b00cf80de00f4
:101d0000c700dd0000002000020170008381700028
:101d100006003700610010000000e90003003300f6
:101d20008301d1000281d300fbff370000002000b7
:101d3000010028008583600000037800060171001f
:101d4000878171000204be000800be004f06be007d
:101d50004f05be004f04be000080fa0000000600e0
:101d60000800fa000002be008501780003f0a1001f
:101d700000017800a6fd200097f42300860f510093
:101d8000878f590006003e00f4ff2f00f5972300cf
:101d9000840f5100858f5900640036005d003700c4
:101da0004f0ade0005002000163d2500b70724007d
:101db000860f5100878f590019003e0036be2c0057
:101dc00067012400860f5100878f59000a003e00ea
:101dd0000400e00004003200b2fd200093fc230068
:101de000f2fa07004f003700b2fd200093fc2300f9
:101df000e5fa0700420037000400e000040032006a
:101e0000b2fd200093042400e8fa070040003700e8
:101e1000b2fd200093042400dbfa07003c003700e9
:101e2000561d2300270e2400860f5100878f59006e
:101e300019003e00f6dd2e00f70a2400860f51003f
:101e4000878f59000a003e000400e00004003200c1
:101e500042be2c0063092400d4fa07002800370092
:101e600042be2c0063092400c7fa07002d0037008a
:101e70000400e00004003200b2fd2000930c2400b6
:101e8000cafa070023003700b2fd2000930c24009b
:101e9000bdfa07001f003700f4ff2f00f5f72700f9
:101ea000840f5100858f5900030036000001be00e9
:101eb000b5fa07001d003700688157004b00070086
:101ec0006011b80063016000e10f5100e08f59001c
:101ed00009003200e20f5100e08f59000a00320081
:101ee000e00f5100e08f59000c003a004fb8970006
:101ef000dfb89700070037004fb89700dfb89700aa
:101f00000c000700090037004fb89700dfb89700b2
:101f100001f0a20091000700040037004fb89700bd
:101f2000dfb897000300070001f0a2000080fa006c
:101f300000000600889fbe008a9fbe008c9fbe00e6
:101f40000001be005dfc07000004be000001be00f1
:101f50005afc07000005be000200200003f02b0021
:101f60000800be0055fc07000200200003f8230013
:101f70008efa07000006be00f2a92a00a3d22300b1
:101f80000a00be004dfc07000001be000c00be00b0
:101f900086fa07000006be000801be000a00be0067
:101fa00046fc07000005be0072a12900c37c230087
:101fb0000800be0041fc0700f243200063ab230091
:101fc00071fa07000001be000a00be003bfc0700da
:101fd0000001be000c00be0074fa07004f06be00f0
:101fe0004f05be004f04be0000000600ea87470010
:101ff000889fbe008a9fbe008c9fbe008e1f780007
:102000000006be00020478000005be008b017800c7
:1020100003f0a10000017800a0fd200091dc240065
:10202000800f5100818f59001e003e0032982f0012
:1020300023f223000c00be0020fc07000200200059
:1020400003b4240059fa07000200200003b424005e
:102050004dfa07000005be00f5f90700800478007e
:10206000a2fd200093fc23000a00be0013fc070021
:102070000001be000c00be0043fa07000006be00cf
:10208000325a2800832823000a00be000bfc0700f8
:102090000001be000c00be003bfa0700008cbe0031
:1020a00027003700f0ff2f00f1f72700800f5100c5
:1020b000818f5900060036000c01be000c00be00e6
:1020c00031fa0700008cbe008004eb001c003700d2
:1020d0004718de00010020006009b1000180b10056
:1020e000c702dd0004002000040151008581590071
:1020f00076875700029fbe000002eb00130020000d
:10210000000178008e0078007680570043000700b9
:1021100080047800e00f5600e08f5e0006003d006e
:102120001e0078009e00900001f0a200008cbe000e
:102130008904ea00020037003e1c78002e14780063
:10214000090078004f0778004f06be004f05be001b
:102150004f04be00af00b10000000600889fbe0023
:102160008a9fbe008c9fbe000005be000001be001d
:10217000d2fb07000004be000a01be00cffb07002f
:102180000006be004288280083c023000800be006d
:10219000cafb0700b2aa2a00a3e22300faf907004b
:1021a0000001be000c00be00c4fb07000001be0021
:1021b0000a00be00fdf907000005be000801be00d0
:1021c0000800be00bdfb07000001be000c00be0001
:1021d000bafb07000006be00c2c3260063632300eb
:1021e0000800be00b5fb0700f27c20000395230029
:1021f000e5f907000001be000c00be00affb0700c0
:102200000001be000a00be00e8f907004f06be004c
:102210004f05be004f04be0000000600af17b0001f
:10222000889fbe008a9fbe008c9fbe008e1f7800d4
:10223000b0a79f0081af9f000204780003057800db
:10224000f4a79f00040042006108210000804000c4
:10225000100078006101b900b2af9f00c3af9f00ca
:102260000a00e9006102b90094af9f00a5af9f008a
:102270006300540082012000110009000200d80010
:102280006103b900d6a79f00e7a79f00e00f5300a6
:10229000e08f5b0003003d006000b800d0a79f0006
:1022a000e1a79f005fa19700efa197000280ea00dd
:1022b0008380ea0082012000030020002c04070034
:1022c000cfc1de0000044400818449005fa2970072
:1022d000efa297001fab9700afab97000606520026
:1022e00087865a003fa89700cfa8970000024300b6
:1022f00081824b006eec2f000f074700c265dd00a6
:10230000e0082100808545006011b8000803be0088
:102310000a04be000205be00150037006000b800c8
:10232000e00f5600e08f5e000b00350019007800ca
:1023300099009000d4b79f00e5b79f00f6b79f00c3
:1023400087bf9f0076f907008fbb97007fb3970088
:10235000efb297005fb2970000afbe006105450085
:10236000e0854d0061064600e0864e00e4844400ae
:10237000840f5500858f5d00e8ff34000805780064
:1023800064f62f000f0242006011b800b2b79f0040
:10239000c3b79f0084067800210037003c00780016
:1023a000bc007800e48555001b0178009b0190007b
:1023b000d4b79f00e5b79f00f6b79f0087bf9f0087
:1023c0003efb07000001be000800be0077f90700d1
:1023d0000004be005fb29700efb2970061024200b6
:1023e000e0824a008fbb97007fb397001fa8970039
:1023f000afa89700800f5200818f5a00e7ff34008a
:1024000088aebe003fb19700cfb197006101410097
:10241000e0814900b2b79f00c3b79f000a05e800fa
:102420003fb29700cfb297003fa89700cfa8970080
:10243000800f5200818f5a0008003c003fa6970091
:10244000c255dd00a1ec2f008f8040008b8540003d
:102450006044b8006022b800e4ff37003fa997004d
:10246000cfa99700b2b79f00c3b79f0096b79f0050
:10247000a7b79f00bfb297004228dd00a6e72f0054
:102480000f0343000000430000bc900090bc90008c
:102490006de72f008f8646003fb09700cfb09700c2
:1024a00061005000e0805800f0af9f0081b79f00ae
:1024b000c205dd00a1f62f008f8040008b85400013
:1024c0000d0578003fb39700cfb397000d07780054
:1024d0001b00370002002000033823000800be0064
:1024e000f6b79f0087bf9f00f4fa0700d0f80700f7
:1024f0000bf907000006be000200200003b824000c
:10250000eefa07000001be000800be001ef9070039
:10251000c7f8070000adbe009b0090001b007800cc
:10252000e48555000c01be0020f907000004be0040
:102530007fb397008fbb970061035300e0835b007c
:10254000e00f5300e08f5b00e2ff3c008e06780056
:102550001fb697000c0178000800be005a03070060
:102560000004be000200200003e02300d3fa0700ad
:10257000f60207000200200003102400cffa070033
:102580000001be000800be00fff807000005be0005
:10259000a7f807000004be00e1f807000001be0034
:1025a0000a00be00f8f807000005be001fb1970042
:1025b000afb19700e00f5100e08f590023003400c5
:1025c000ffa997004218dd00a4e72f000f02420088
:1025d000000042001002780090029000f8001600ff
:1025e0000401be00010378000603e9000300330084
:1025f0008381d1000281d300fbff37000804410032
:10260000898449008100e900030033000201410090
:1026100083814900fbff37000201520083815a0089
:102620000288be00770016000202be000000e9002a
:10263000030033008582d1000482d300fbff370002
:10264000d4af9f00e5af9f001e0037001fb3970077
:10265000afb39700e00f5300e08f5b000c003a002f
:10266000ffab97004238dd00a1e72f008f804000cc
:102670000080400090009000100078004789de0044
:10268000d2af9f00cf89de00e3af9f000d0037007f
:102690000200200003f0230063f80700240020005c
:1026a00005002000d4af9f00e5af9f000000e000d0
:1026b00009003d006033b800d6af9f00e7af9f0030
:1026c000660037005fa89700efa89700e00f500062
:1026d000e08f58006100340061044400e0844c0045
:1026e0006000b8006022b80014003700e48646009d
:1026f0001d0178009d019000e00f5200e08f5a000c
:1027000006003a00e00f5100e08f59000900320046
:10271000040020000510200002003700f4ff2f0005
:10272000f50f2000821e520083965a0014002000ec
:102730000500200061004000e08048003fb19700a4
:10274000cfb19700820f5000838f5800e7ff35000c
:102750001fb39700afb39700e00f5300e08f5b000b
:1027600025003400e10f5300e08f5b0004003200cd
:10277000e20f5300e08f5b001f003a000f003700ac
:10278000ffab97004238dd00a1e72f008f804000ab
:102790000080400010017800900190000303780051
:1027a000f607b200a6a79f008203780097a79f00b4
:1027b0001fa19700afa197000e003700ffa9970057
:1027c0004218dd00a6e72f000f034300000043007e
:1027d000100178009001900083037800f703b200a5
:1027e00087a79f0082007800f19f9f007f99970044
:1027f0008fa197000288be005fab9700efab9700f8
:10280000e20f5300e08f5b0014003a000a01be00a3
:102810000000200001f82300d4b79f00e5b79f0017
:1028200059f807000005be005fb29700efb29700ad
:10283000e00f5200e08f5a00080032000c017800cf
:102840000000200001f823009f0207000001be00e5
:102850000a00be004cf807000005be006011b80079
:102860000a00be00eef707000000e0008a003a0010
:102870003fb09700cfb09700ffab9700423add0022
:10288000a2e72f000f014100040241006011b800cf
:10289000050037009403900014037800640252008e
:1028a000060171008781710061005000e0805800ce
:1028b0003fab9700cfab9700860f5000878f580033
:1028c000f4ff3d00e00f5100e08f590080003a0016
:1028d00061005300e0805b004200dd00a7e72f00ad
:1028e0008f8343000080430012002000030020007b
:1028f000f2af9f0083b79f0012002000030020006a
:102900000200370061014100e0814900900290001f
:102910001002780064005000e00f5200e08f5a006f
:10292000f8ff3200f2af9f0083b79f003fb39700dc
:10293000cfb3970061024300e0824b004226dd00e6
:10294000a7f62f008f8343000c8643005fa19700fa
:10295000efa1970061004100e08049003fb397007c
:10296000cfb397000000430081804b00c204dd001c
:10297000e0082100808444001fa99700afa99700b8
:1029800061004100e08049000000430081804b006d
:102990004201dd00a3ec2f008f81410082814100c4
:1029a000c3a79f000004e8000907780088067800a4
:1029b0000404be002c0037003e007800be00780002
:1029c000d7f707004fa29700009abe00c4a79f0048
:1029d0003fa29700c26add00a6ec2f000f03430060
:1029e000850243006033b8006055b800d89f9f004f
:1029f000e99f9f000404be001000370038007800f3
:102a0000b8007800e484540019017800990190001e
:102a1000f6b79f0087bf9f00a8f907000001be001e
:102a20000a00be00e1f707000005be007fb3970073
:102a30008fbb970061034300e0834b001fa9970001
:102a4000afa99700820f5300838f5b00ebff340028
:102a50005f9c9700ef9c97000a9ebe0061044400b3
:102a6000e0844c008d06e8007faa97008fb29700a3
:102a70003fb39700cfb397000400430085804b001d
:102a8000800f5400818f5c00cbff3400b0b79f00f3
:102a9000c1b79f0077fe370098af9f00a9af9f0096
:102aa0001fb49700afb497000c01ea000a00be0003
:102ab000050207000005be000200200003b8240044
:102ac00059f707000000e00022003d0045003700f4
:102ad00098af9f00a9af9f001fb49700afb49700b5
:102ae0003fb09700cfb0970061005000e0805800e1
:102af000b0b79f00c1b79f0078045400e0845c0029
:102b0000bfb097004208dd00a2e72f000f0141008f
:102b1000000041003fb19700cfb19700040037009b
:102b200061015100e081590078045400e0845c00a8
:102b3000900290001002780064005000e00f5200f4
:102b4000e08f5a00f6ff3200b2b79f00c3b79f0074
:102b50002c00370002002000033823000a00be00ca
:102b600056f9070032f707006df707000006be00b0
:102b7000bfb29700422fdd00a6e72f000f034300ee
:102b80000e0743000200200003b824004bf90700a1
:102b90000001be000a00be007bf7070024f7070013
:102ba000008fbe003fb09700cfb09700610040009b
:102bb000e0804800b0b79f00c1b79f007804440090
:102bc000e0844c004205dd00a1e72f008f8040002b
:102bd0000a8540000c00be0015f70700008dbe00fe
:102be000080037003fb197004216dd00a3e72f0031
:102bf0008f8141000c8641000a00be000cf70700df
:102c0000008ebe00080178000000200001f82300bb
:102c1000ad0107000004be003fb29700f4af9f0073
:102c20008402e80095b79f00c22ddd00a6e72f00c3
:102c30000f0343000b054300a7f62f008f834300cb
:102c40008b8543003fb69700cfb697000f00370043
:102c5000640555001a0078009a00900030f70700cc
:102c60000001be000800be0014f9070080a5be00e8
:102c700002002000033823000800be000ff90700ff
:102c80000004be0061065600e0865e00e00f5600bc
:102c9000e08f5e00eeff3d006df12f008f86460055
:102ca0003fb59700cfb59700200037006406460077
:102cb0001c0178009c019000640747001e0078000a
:102cc0009e009000d4b79f00e5b79f00fbf8070077
:102cd0000001be000800be0034f707000004be007b
:102ce00061054500e0854d00efb297005fb29700a7
:102cf0003fa89700cfa89700800f5500818f5d00f7
:102d000007003c003fb19700cfb19700040051008d
:102d100085805900800f5500818f5d00e3ff3400ee
:102d200088aebe0061055200e0855a00e00f5500f4
:102d3000e08f5d000b0035002e1921000a06e90026
:102d40004266dd00a3f62f008f8141000c86410012
:102d50006044b8006000b8000a02be000005be0072
:102d6000e3ff37007fa29700e20f520005003c000e
:102d7000e10f520010003d000400e0001700320097
:102d8000ea003700ffa29700e38f5200e7003a0005
:102d90003fb397004232dd00a7f12f008f8343003d
:102da00004824300040778003fb39700cfb3970035
:102db000b4af9f007a0037001fb097004205dd00d6
:102dc000a1f12f008f8040000a8540003fb497009a
:102dd000cfb497006000b800210037001fb1970002
:102de0004214dd00a3f12f008f81410008844100cf
:102df0003fb59700cfb597006000b80006003700d8
:102e0000640454001801780098019000e7f6070068
:102e100061055500e0855d00e00f5500e08f5d0025
:102e2000f7ff3d005faa9700efaa9700e00f52005e
:102e3000e08f5a000100320001f0a2008faa970033
:102e4000808abe00b9003700640555001a01780079
:102e50009a019000d5f6070061045400e0845c00fc
:102e6000e00f5400e08f5c00f7ff3d000001be0062
:102e70005fab9700efab9700e00f5300e08f5b0074
:102e80000100320001f0a2008fab9700808bbe00e2
:102e90005f089700ef089700bbf60700aaf12f0024
:102ea0000f0545001800200009002000060037002b
:102eb000640545001a0178009a019000bbf60700ee
:102ec00061044400e0844c003fb19700cfb197000b
:102ed000820f5400838f5c00f5ff34008fa99700a8
:102ee000648141005faa9700efaa9700e00f5200ab
:102ef000e08f5a000100320001f0a2000089be00fc
:102f00008a003700c0ff2f00ffaa970080a8b900f1
:102f1000000047003fb29700cfb297006101520016
:102f2000e0815a004211dd0082024000e48242004a
:102f300015067800950690000e02780064024200a3
:102f400014057800940590000a01be000c00be0034
:102f5000d4b79f00e5b79f00f6b79f0087bf9f00db
:102f600092f607000004be000001be000c00be0087
:102f700085f607000001be000a00be008bf60700c0
:102f80005fb29700008abe00efb29700888abe0049
:102f90007fb397008fbb970061035300e0835b0012
:102fa00064075700e00f5300e08f5b00d5ff3c0043
:102fb0003faa97003fb39700cfb39700040478006f
:102fc00027003700c0ff2f00ffaa970080a8b90094
:102fd000000044003fb29700cfb297006101520059
:102fe000e0815a00c214dd0089044000e4844400fa
:102ff00019027800990290000807780064074700da
:103000001e0678009e0690000c01be000400be0063
:10301000d4b79f00e5b79f00f6b79f0087bf9f001a
:1030200062f607000005be000001be005fb2970017
:10303000efb297000400be0053f607000001be0087
:103040000c00be0059f60700008fbe008a8cbe003f
:103050007fb397008fbb970061035300e0835b0051
:1030600064045400e10f5300e08f5b00d5ff3c0087
:103070009fb29700422cdd00a6f12f000f03430002
:10308000080443003fb59700cfb597006000b80033
:10309000060037006404540018017800980190007d
:1030a00042f6070061055500e0855d00e10f55001f
:1030b000e08f5d00f7ff3c005fa99700efa9970044
:1030c000e00f5100e08f59000b003a000fa9970064
:1030d0005f0a9700ef0a97000499be007f0b9700e4
:1030e0008f1397000689be008fab9700c00398002e
:1030f000d10398000d0037005f0a9700ef0a970090
:1031000005f0a2000fa997000499be007f0a97005e
:103110008f12970005f0a2000489be0001f0a20002
:103120000fa9970040019800510198009fa99700ae
:10313000678061004f0778004f06be004f05be0054
:103140004f04be00af17b100000006000c00fa00eb
:10315000889fbe008a9fbe008c1f78000004be00be
:103160006000b8006011b800f0b79f0081bf9f00f9
:1031700092bf9f00a3bf9f00f8b79f0089bf9f0029
:103180007fb297008fba97001fbb9700afbb970025
:10319000443ade00f07f2000000662002043200059
:1031a000800f560042003c006011b8000800be00cd
:1031b0009bf507000000e0003d0032007fb0970063
:1031c0008fb897001fb99700afb99700e00f500074
:1031d000e08f5800e00f5900e08f590008003d00d3
:1031e0000200200003b024000800be00e6f507003e
:1031f0000200200003b02400ecf5070007003700b0
:103200000200200003b024000800be00e7f507001c
:103210000200200003b02400dbf507000801be0017
:10322000d9f507000005be00e03f2000800f5600e2
:103230000f003c00dab79f00ebb79f006044b80076
:103240007fb097008fb897001fb99700afb997006c
:10325000e00f5000e08f5800e00f5900e08f590058
:1032600013003d000800200009f82b001000370073
:103270006011b8000a00be006bf507000000e00016
:10328000070034000a01be000800be00c7f50700b1
:103290000200200003f82300bbf5070003003700fd
:1032a0000a01be000800be00c0f507000004be0011
:1032b0000800be004f0678004f05be004f04be0058
:1032c0000080fa0000000600889fbe008a9fbe00b2
:1032d00002047800f93f2000890f54000d003400eb
:1032e0000200200003f8270074f70700f83fb10040
:1032f000890f5400150034000200200003f8270055
:103300006ef70700f83fb100890f54000e003c0033
:103310000e00370029c02f00890f54000b003d001c
:103320006011b80065f70700983cb000890f5400a1
:1033300006003d006011b80060f70700983cb0003f
:10334000890f540001003d0009047800f83fb000e7
:10335000cfc4de00614db9006044b8000801be0072
:1033600056f707004f05be004f04be0000000600e0
:10337000020ab900001bb9000200b8008100420037
:0833800081004300000006007b
:020000040000fa
:103388000a00fa00881f7800df0b0700a60b070069
:10339800250507003d0507004705070064cea8007e
:1033a80064eea800254ea80048070700d60a0700c3
:1033b800630b0700330607003b0607000000eb001d
:1033c800000f7800070037002c0b07008e80e800fc
:1033d800804878000e80e80010407800e20307007b
:1033e8001e0fe8003f0b07009e0f5000f6ff3c0041
:1033f800070b07000004e0000f013200080b07006c
:10340800ff0a070080007800640047000108780080
:1034180064004700100078001000780020828800bf
:1034280064004700100078000080e8001000780071
:103438003082880064004700100078006400400073
:10344800100078004082880064004700100078006f
:103458006600400010007800308288006400470051
:103468001000780068004000100078004082880052
:103478006400470010007800100078008000eb001e
:1034880028f50700323323003305240009f7070025
:10349800020020000358240027f60700d2cc2c0095
:1034a800c304240003f70700660147000089be0033
:1034b800660047001001780090019000000020008d
:1034c800812024001cf6070002002000030a2400c3
:1034d8002bf50700a08e8800b18e88006400470095
:1034e800100078000080e800100078008000eb00f1
:1034f8000cf507003233230033052400edf60700ee
:1035080002002000035824000bf60700d2cc2c0040
:10351800c3042400e7f60700660147000089be00df
:10352800660047001001780090019000000020001c
:103538008120240000f6070002002000030a24006e
:103548000ff50700408e8800518e88006400470000
:103558001000780064004000100078008000eb0044
:10356800f0f407003233230033052400d1f60700b6
:103578000200200003582400eff50700d2cc2c00ed
:10358800c3042400cbf60700660147000089be008b
:1035980066004700100178009001900000002000ac
:1035a80081202400e4f5070002002000030a24001b
:1035b800f3f40700608e8800718e8800640047006d
:1035c8001000780068004000100078008000eb00d0
:1035d800d4f407003233230033052400b5f607007e
:1035e8000200200003582400d3f50700d2cc2c0099
:1035f800c3042400aff60700660147000089be0037
:10360800660047001001780090019000000020003b
:1036180081202400c8f5070002002000030a2400c6
:10362800d7f40700808e8800918e880064004700d8
:103638001000780066004000100078008000eb0061
:10364800b8f40700323323003305240099f6070045
:103658000200200003582400b7f50700d2cc2c0044
:10366800c304240093f60700660147000089be00e2
:1036780066004700100178009001900000002000cb
:1036880081202400acf5070002002000030a240072
:10369800bbf40700c08e8800d18e8800608e800041
:1036a800718e800018c0b3000200200003122400ad
:1036b80059f407000000e000010035000044eb0069
:1036c8000804e00004003200000020000112240079
:1036d800608e8800718e8800808e8000918e8000b8
:1036e80018c0b30002002000031224004af40700a7
:1036f8000000e000010035000044eb000804e00091
:10370800040032000000200001122400808e88008e
:10371800918e8800408e8000518e800018c0b300c2
:1037280002002000031224003bf407000000e00020
:10373800010035000044eb000804e00004003200fa
:103748000000200001122400408e8800518e88005d
:10375800c08e8000d18e800018c0b3000200200007
:10376800031224002cf407000000e00001003500db
:103778000044eb000804e0000400320000002000d0
:1037880001122400c08e8800d18e8800a08e80008f
:10379800b18e800018c0b30002002000031224007c
:1037a8001df407000000e000010035000044eb00b4
:1037b8000804e00004003200000020000112240088
:1037c800a08e8800b18e8800408e8000518e8000c7
:1037d80018c0b30002002000031f24000ef40700e5
:1037e8000000e000010035000044eb000804e000a0
:1037f80002003200254ea80001003700254ea9001e
:10380800808e8000918e800018c0b30002002000d6
:10381800031f240000f407000000e0000100350049
:103828000044eb000804e0000200320064cea80067
:103838000100370064cea900e08d8000f18d800082
:1038480002002000831c2400f3f307000000e000be
:1038580009003a00208e8000318e8000020020008e
:10386800831c2400ecf307000000e00002003a008b
:1038780064eea800d1fe370064eea900cffe370041
:103888000000fa004ed0bf000080fb00cf80de00b1
:103898003201200003002000820f5000838f58005f
:1038a800ad003e0000060100130037001c00370081
:1038b800250037002f003700330037003c00370061
:1038c8004000370049003700650037006f003700b7
:1038d800730037007d0037009100370099003700ea
:1038e8007f00370089003700450037004e00370059
:1038f8004f003700580037007230ef007430ef0087
:1039080012c0b3006000b800b70607000041eb0022
:103918006000b800b406070010c0b3004ef0b7004e
:1039280092838000a3838000803e20000100200055
:10393800800f5100818f59008a00360020c0b300e3
:103948004ef0b7009600370012c0b3000000200008
:10395800811c2400a40607000041eb0000002000a1
:10396800811c2400a006070030c0b3004ef0b70049
:103978008b00370082d0bf00e14f50007b003a0037
:10398800890007008600370012c0b300000020003d
:1039980001152400940607000041eb006000b80000
:1039a8009106070050c0b3004ef0b7007c00370006
:1039b80082d0bf00e14f50006e003a007a00070045
:1039c8007700370012c0b3006000b8008606070011
:1039d8000041eb00000020000115240082060700ca
:1039e80070c0b3004ef0b7006d00370082d0bf0042
:1039f800e14f500061003a006b0007006800370093
:103a080012c0b3000000200001162400760607004b
:103a18000041eb006000b8007306070010c1b30056
:103a28004ef0b7005e0037005f0007005c0037000b
:103a380012c0b3006000b8006b0607000041eb003d
:103a480000002000011624006706070030c1b300fb
:103a58004ef0b700520037005300070050003700ff
:103a680012c0b30000002000011724005e06070002
:103a78000041eb000000200001172c005a06070047
:103a880090c0b3004ef0b7004500370082d0bf00a9
:103a9800e14f50003b003a00430007004000370068
:103aa80012c0b3000000200001172c004e060700ca
:103ab8000041eb0000002000011724004a0607001f
:103ac800b0c0b3004ef0b7003500370082d0bf0059
:103ad800e14f50002d003a00330007003000370056
:103ae80012c0b3000000200001172c003e0607009a
:103af8000041eb000000200001172c003a060700e7
:103b0800f0c0b3004ef0b7002500370082d0bf00e8
:103b1800e14f50001f003a00230007002000370043
:103b280012c0b3006000b8002f0607000041eb0088
:103b38006000b8002c060700f0c0b3004ef0b700d4
:103b48001700370082d0bf00e14f500013003a0041
:103b580015000700120037004e70ef00000000004b
:103b68000f003700000000000d00370000000000c3
:103b78000b003700000000000900370000000000bb
:103b880007003700000000000500370000000000b3
:103b980003003700000000000100370000000000ab
:103ba8000080fa00000006000200fa00881f780072
:103bb8000040eb00004f7800608e8000718e80001e
:103bc80018c0b30002002000831c240012f3070071
:103bd8000000e000010035000044eb000804e000ac
:103be8000300320030c0b300004f7800b80037003f
:103bf800808e8000918e800018c0b30002002000e3
:103c0800831c240004f307000000e00001003500d5
:103c18000044eb000804e0000300320040c0b30099
:103c2800004f7800aa003700408e8000518e800037
:103c380018c0b30002002000831c2400f6f207001d
:103c48000000e000010035000044eb000804e0003b
:103c58000300320050c0b300004f78009c003700ca
:103c6800a08e8000b18e800018c0b3000200200032
:103c7800031a2400e8f207000000e0000100350004
:103c88000044eb000804e0000300320020c0b30049
:103c9800004f78008e003700c08e8000d18e8000e3
:103ca80018c0b30002002000031a2400daf207004b
:103cb8000000e000010035000044eb000804e000cb
:103cc8000300320010c0b300004f780080003700b6
:103cd800a082800091242000810f500027003e0020
:103ce80081242000810f50007600310091042000cb
:103cf800810f500013003e0081042000810f500006
:103d08006a003100e90f500007003e00e80f50003c
:103d1800600031000000e00048003200e10f500070
:103d28005c0032006a00370001042000810f500057
:103d38004500320011042000810f50005b00320062
:103d48006300370091202000810f500007003e00db
:103d580081202000810f50005a0031000020b1005e
:103d6800e10f50005a003e004d0037000024b1001a
:103d7800e10f500056003e004f003700f177220057
:103d8800810f500017003e00e1772200810f50009c
:103d980046003100b1712200810f50000a003e0038
:103da800a1712200810f50003a00310001712200f8
:103db800810f50003a00320011712200810f50002b
:103dc8001e0032004200370041772200810f500068
:103dd8003900320051772200810f50001a0032005a
:103de8003b00370031b02200810f500008003e0030
:103df80021b02200810f50003200310081502d0087
:103e080001004000e10f500031003e00240037005f
:103e1800c1b52200810f50002d003900d1b5220014
:103e2800810f500024003600a1492d0001004000f8
:103e3800e10f500026003e00220037000040eb0052
:103e4800004f780022003700448e8000558e800095
:103e5800808e8000918e800018c0b3000001be00e3
:103e68000400be006ef207000000e00001003c0004
:103e78000044eb000804e0000300320040c0b30037
:103e8800004f78001200370050c0b300004f780090
:103e98000f00370010c0b300004f78000c00370047
:103ea80020c0b300004f78000900370040c0b300bd
:103eb800004f78000600370050c0b300004f78006c
:103ec8000300370030c0b300004f78000000000046
:103ed8001e4078000004e00003003a0020c0b30050
:103ee80056f0b7002d0037001e407800e24f500012
:103ef80003003a0040c0b30056f0b700270037006f
:103f08001e407800e14f500003003a0060c0b30043
:103f180056f0b700210037001e407800e54f5000ea
:103f280003003a0000c1b30056f0b7001b00370089
:103f38001e407800e44f500003003a0020c1b3004f
:103f480056f0b700150037001e407800e34f5000c8
:103f580012003a00a48e8000b58e8000c08e8000ca
:103f6800d18e800018c0b3000001be000400be005e
:103f78002bf207000000e00001003d000044eb00c8
:103f88000804e00003003200a0c0b30056f0b700f8
:103f98000200370080c0b30056f0b70056d0bf000b
:103fa8008080fb004ed0bf000080fb000000e900cd
:103fb800808f50002800320056d0bf004ef0b70066
:103fc80090838000a183800080828800918288008d
:103fd800e104210091407800f03f21000148780079
:103fe80080828000918280004808de00804078004e
:103ff8000040210001487800808280009182800082
:104008004008de0080407800104021000148780018
:1040180080828000918280004809dd004800de002f
:1040280000007100c808de008040780020402100b0
:10403800014878008082800091828000804078006a
:104048003040210001487800f23f21005100200053
:10405800000520004c0007004f0478000080fa009b
:10406800000006000a00fa00e40147008009780011
:1040780066004700010878006800470002087800d9
:104088008040eb000e80e800014878000e80e800d0
:1040980090407800e0cfb30080c068000e80e80050
:1040a8000148780064004700100078004880de006e
:1040b800004078008e80e8009140780080c0680059
:1040c8000e80e8000148780064004700100078007e
:1040d800004078008e80e8009140780080c0680039
:1040e8000e80e8000148780066004700100078005c
:1040f8004880de00004078008e80e800914078001b
:1041080080c068000e80e80001487800660047001b
:1041180010007800004078008e80e8009140780018
:1041280080c068000e80e800014878000000eb00bd
:10413800000f78000b0037009e00780068004700e9
:104148001000780001004000104078008e80e800e0
:104158009140780080c068000e80e800014878002f
:104168001e0fe80066004700100078009e007800e7
:10417800808f5000f0ff35000e80e8001040780076
:104188000080fa00000006000e00fa00889fbe00ba
:10419800e8014700800978006a00470001087800b4
:1041a8006c004700020878000f0478000f007800c0
:1041b800800478006a00470010007800660040001c
:1041c8000001e900e4004700820878000000e800e8
:1041d8000000e8000000d100800040000f007800d7
:1041e800818747000000e8000000d100000040007f
:1041f800e6004700800878000000eb00000f780018
:1042080066004700100078001e004000e1cfb300b0
:10421800014878001e0fe800680047001000780089
:104228004880de0080407800660047001000780073
:104238001e004000014878001e0fe8006800470093
:104248001000780080407800660047001000780071
:104258001e004000014878001e0fe8006a00470071
:10426800100078004880de00804078006600470033
:10427800100078001e004000014878001e0fe8007a
:104288006a00470010007800804078006600470008
:10429800100078001e004000014878001e0fe8005a
:1042a8008000eb000e80e80001087800100037005d
:1042b8000e80e800900078006c004700100078003d
:1042c8000100400090407800660047001000780028
:1042d8001e004000014878001e0fe8000e80e8002c
:1042e800100078008000e8000e80e80001087800df
:1042f8000e80e800900078006a00470010007800ff
:10430800808f5000eaff35006c00470010017800ec
:104318006a004700900078006800470010007800a5
:1043280050ff0700e6004700910078009e8040009b
:10433800804878006a004700100078006600400056
:10434800e60047001101780080007800020078003c
:104358008806070089077800880778004f04be00a0
:104368000080fa00000006000200fa00004f780002
:1043780040818000e30f500023003200e30f50001b
:1043880007003c00e10f500012003200e10f50001e
:1043980016003c000000e00008003200530037001f
:1043a800e50f50002c003200e50f50001c003500ce
:1043b800e60f50003a0032004c0037001e407800eb
:1043c800e24f40004c003a00100020004081880075
:1043d8004e0037001e80fb004800dd005081880039
:1043e8002000200040818800480037001e80fb0024
:1043f8005181800001004000508188003000200079
:1044080040818800410037001e80fb004800dd0025
:104418006081880040002000408188003b00370010
:104428001e80fb00618180000100400060818800df
:10443800608180000000e00003003a006000200076
:1044480040818800310037002e30ef0050002000f6
:10445800408188002d0037007181800060818000d4
:10446800808f500026003d00718180004026210089
:10447800010040001e487800708180000000e800bc
:10448800708188007181800060818000808f500079
:104498001d003a0060002000408188001b003700a2
:1044a8001e41780001032100824878006181800064
:1044b8005081800042262100eafe070031f0b70053
:1044c800110321009140780030d0bf0080cf500008
:1044d80004003a006181800050818000422621005a
:1044e8000c0007002830ef00080037002830ef00e4
:1044f800000000000500370000000000030037003e
:104508000000000001003700000000000080fa00f1
:10451800000006000600fa00000f78000e80e80090
:104528000108780064004700020878001e0078003f
:1045380021052000810f50000b00320031062000b9
:10454800810f50000d00320011052000810f50002e
:1045580098003a0064004700100078001040780086
:10456800aa00070094003700640047001000780094
:1045780010407800920007008f0037006400470061
:10458800100078000000e80090407800402e2100dc
:104598000148780064004700100078000080e800b7
:1045a80090407800502e21000148780064004700b0
:1045b800100078006300400090407800602e2100d1
:1045c800014878006400470010007800640040004b
:1045d80090407800702e2100014878006400470060
:1045e800100078006500400090407800802e21007f
:1045f8000148780064004700100078006600400019
:1046080090407800902e210001487800640047000f
:10461800100078006700400090407800a02e21002c
:1046280001487800640047001000780068004000e6
:1046380090407800b02e21000148780064004700bf
:10464800100078006900400090407800c02e2100da
:104658000148780064004700100078006a004000b4
:1046680090407800d02e210001487800640047006f
:10467800100078006b00400090407800e02e210088
:104688000148780064004700100078006c00400082
:1046980090407800f02e2100014878008000eb005f
:1046a800402e21002204070090818800a181880003
:1046b8005100200064004700100078001c04070027
:1046c800b0818800c1818800910020006400470003
:1046d8001000780029040700d0818800e181880053
:1046e800d100200064004700100078002304070070
:1046f800208388003183880011012000640047006e
:10470800100078001d04070040838800518388004a
:1047180051012000640047001000780017040700ca
:104728006083880071838800640047001000780067
:10473800104078000004e0000f003a00d4818000a7
:10474800e5818000b2818000c38180009081800073
:10475800a18180000403be000202be000001be0069
:1047680040202100ff0407008040eb00402021008a
:104778002305070010003700d4818000e581800000
:10478800b2818000c381800090818000a181800077
:104798000403be000202be000001be004023210047
:1047a800f004070011c0b3004023210014050700de
:1047b80001003700000000000080fa000000060039
:1047c8000200fa00004f780082d0bf009e407800b7
:1047d80080cf50000b0032001e4078000004e0003b
:1047e800030032001e407800e14f500005003a00f7
:1047f8001e4178002108210082487800c0c0b3001b
:104808004ef0b7000080fa00000006000200fa002f
:10481800004f78001e417800e104210082487800aa
:104828000080fa00000006000000fa0013e1a90069
:1048380011e1a9001061a8001021a90081088000d9
:10484800f0fc2f0000806000800888000a21ef003b
:104858000621ef00b0be20007008880000202c0060
:10486800600888002142800080ff2f0000806000df
:104878000000a000204288000108a9002108a80023
:1048880011e1a8000080fa00000006000000fa000c
:1048980000002000a13724008600070005e1a900d8
:1048a8000421a9000068a9002068a80005e1a80063
:1048b8000080fa00000006000000fa000000200056
:1048c800a1472400070007001fe1a9001e21a90035
:1048d8000368a9002368a8001fe1a8000080fa0067
:1048e800000006000400fa00881f7800008fbe0050
:1048f800f1088000f0fc2f0000806000f0088800bc
:104908001e0178009e0190000068290081c12400e2
:1049180009f1070018c0b30002f02f00f377240054
:10492800bfef07000000e00001003c000044eb007e
:104938000804e00054003200f1088000f0fc2f0069
:10494800008060000040a000f00888001e01780088
:104958009e0190000068290081c12400f6f007003c
:104968000200200003102400f3f0070018c0b30071
:1049780002f02f00f3772400a9ef07000000e00001
:1049880001003c000044eb000804e0003200320063
:10499800f1088000f0fc2f00008060000050a000ab
:1049a800f00888001e0178009e0190000068290028
:1049b80081c12400e0f00700020020000328240041
:1049c800ddf0070018c0b30002f02f00f3772400d1
:1049d80093ef07000000e00001003c000044eb00fa
:1049e8000804e00010003200f108800000032000f5
:1049f80001007000f00888001e0178009e019000f8
:104a08000068290081c12400cbf0070002002000c3
:104a180003382400c8f0070083ef0700000078007f
:104a2800d0088800200037001e0178009e01900001
:104a38000068290081c12400bff00700020020009f
:104a480003282400bcf0070077ef07000000780077
:104a5800d0088800140037001e0178009e019000dd
:104a68000068290081c12400b3f00700020020007b
:104a780003102400b0f007006bef07000000780077
:104a8800d0088800080037001e0178009e019000b9
:104a98000068290081c12400a7f0070062ef070021
:104aa80000007800d00888004f0478000080fa00e1
:104ab800000006000400fa00881f7800008fbe007e
:104ac80021088000f0fc2f0000806000200888008a
:104ad8001e0178009e0190000068290081c1240011
:104ae80095f0070018c0b30002f02f00f3772400f8
:104af8004bef07000000e00001003c000044eb0021
:104b08000804e0005400320021088000f0fc2f0067
:104b1800008060000040a000200888001e01780086
:104b28009e0190000068290081c1240082f00700de
:104b380002002000031024007ff0070018c0b30013
:104b480002f02f00f377240035ef07000000e000a3
:104b580001003c000044eb000804e0003200320091
:104b680021088000f0fc2f00008060000050a000a9
:104b7800200888001e0178009e0190000068290026
:104b880081c124006cf007000200200003282400e3
:104b980069f0070018c0b30002f02f00f377240073
:104ba8001fef07000000e00001003c000044eb009c
:104bb8000804e000100032002108800000032000f3
:104bc80001007000200888001e0178009e019000f6
:104bd8000068290081c1240057f007000200200066
:104be8000338240054f007000fef07000000780096
:104bf80010088800200037001e0178009e019000f0
:104c08000068290081c124004bf007000200200041
:104c18000328240048f0070003ef0700000078008d
:104c280010088800140037001e0178009e019000cb
:104c38000068290081c124003ff00700020020001d
:104c4800031024003cf00700f7ee0700000078008e
:104c580010088800080037001e0178009e019000a7
:104c68000068290081c1240033f00700eeee070038
:104c780000007800100888004f0478000080fa00cf
:104c8800000006000000fa00c301a8000080eb0045
:104c9800e00e88000080eb00f00e8800c1e1a8005b
:104ca8000080fa00000006000000fa00c305a80012
:104cb8000080eb00e02e88000080eb00f02e8800da
:104cc800c1e5a8000080fa00000006000800fa000c
:104cd800889fbe004080800051808000008088004e
:104ce80011808800608080007180800020808800aa
:104cf80031808800300e80008000eb00008fbe00fd
:104d0800500e80008000eb00c000dd000000200095
:104d18001e0f40005e974800302e80008000eb0098
:104d2800640147000089be00502e80008000eb001f
:104d3800c000dd00000020006401470092019000df
:104d48001201780002004000838048006401470097
:104d58000089be001e0078009e009000eeee07005d
:104d6800d25d2b0043c82300d2f0070040808800a2
:104d7800518088006400470090009000100078007f
:104d8800e5ee0700d25d2b0043c82b00c9f00700f1
:104d98006080880071808800448080005580800091
:104da80000808000118080000001be000400be0069
:104db800f3ee07008080880091808800648080007e
:104dc8007580800020808000318080000001be0056
:104dd8000400be00eaee0700a0808800b1808800c9
:104de800808080009180800002002000a33724008a
:104df800b0f00700e08e8800f18e8800a080800067
:104e0800b180800002002000a3372400a9f0070029
:104e1800008f8800118f8800e48e8000f58e800056
:104e2800008f8000118f80000001be000400be00ca
:104e3800dcee07000200200003002400beef07009c
:104e4800208f8800318f8800e48e8000f58e8000e6
:104e5800008f8000118f80000001be000400be009a
:104e6800c7ee0700a2992900c3382400b2ef070053
:104e7800408f8800518f8800208f8000318f8000fc
:104e880002002000a3372400abef07002081880030
:104e980031818800408f8000518f800002002000ff
:104ea800a3372400a4ef070000818800118188003f
:104eb800608f8000718f8000a08f8800b18f88007c
:104ec800808f8000918f8000c08f8800d18f8800ec
:104ed800e08f8000f18f800000908800119088009a
:104ee800a88f8000b98f8000e08f8000f18f80004c
:104ef80080f207000002be0020818000318180001e
:104f08000001be000400be006af007000001be00f8
:104f18000800be00a3ee0700608f8800718f88002c
:104f2800c88f8000d98f8000e08f8000f18f8000cb
:104f380089f307000002be002081800031818000d3
:104f48000001be000400be005af007000001be00c8
:104f58000800be0093ee0700808f8800918f8800bc
:104f6800e48f8000f58f800000818000118180002f
:104f78000001be000400be008aee0700e08f880032
:104f8800f18f8800e08f8000f18f800018c0b30097
:104f9800b2fd20009304240021ee07000000e00089
:104fa80001003c000044eb000804e0000700320068
:104fb800e08f8000f18f8000b2fd2000930c240068
:104fc8006fee0700e08f8800f18f8800e08f800087
:104fd800f18f800018c0b300b2fd200093042c00ac
:104fe8000dee07000000e000010035000044eb0072
:104ff8000804e00007003200e08f8000f18f800095
:10500800b2fd2000930c240066ee0700e08f8800b4
:10501800f18f88004f04be000080fa0000000600ef
:105028001800fa0090838000a18380000001be0070
:105038008000eb000e007800fe010700608f800002
:10504800718f80000001be00410020000e00780032
:10505800d9010700808f8000918f80000001be0079
:10506800810020000e007800d3010700e08f800047
:10507800f18f80000001be00c10020000e00780002
:10508800cd010700208f8000318f80000001be0015
:10509800010120000e007800c7010700408f800042
:1050a800518f80000001be00410120000e007800f1
:1050b800c10107000e0178008101200010062000c0
:1050c80031fc07000080fa00000006000000fa002a
:1050d8001160800080ff2f00008060001060880051
:1050e80000fa20002060880023aca800238ca800c8
:1050f80011618000f03f2f000080600000a0a00038
:10510800106188003000200020618800c3aca8002e
:10511800c38ca80011668000f03f2f00008060005b
:1051280000a0a000106688003000200020668800db
:1051380001eca8000080fa00000006000000fa0058
:10514800889fbe008a9fbe00248e8000358e800016
:10515800008e8000118e800018c0b3000001be00d0
:105168000400be00aced07000000e00001003500bf
:105178000044eb000804e0000f003200088e8000b5
:10518800198e80002a8e80003b8e800080d0bf0060
:105198000080fb00cf80de00dfed07000001be00cd
:1051a8000a00be00ffed07000801be00100207005c
:1051b800208e8800318e8800248e8000358e8000f5
:1051c800008e8000118e800018c0b3000001be0060
:1051d8000400be0092ed07000000e00001003c0062
:1051e8000044eb000804e0000f003200088e800045
:1051f800198e80002a8e80003b8e800080d0bf00f0
:105208000080fb00cf80de00c3ed07000001be0078
:105218000a00be00daed07000801be00da01070047
:10522800208e8800318e8800208e8000318e80008c
:1052380018c0b3006011b80077ed07000000e00067
:10524800010035000044eb000804e00004003200cf
:10525800c3cca90024eea800c3eca80003003700c3
:10526800c3eca90024cea800c3cca800208e8000df
:10527800318e8000ae0107000200200003222400c6
:105288008cef070089ed0700000078003066880081
:10529800e48d8000f58d8000c08d8000d18d800068
:1052a80018c0b3000001be000400be005aed07009c
:1052b8000000e000010035000044eb000804e000b5
:1052c8000f003200c88d8000d98d8000ea8d8000e3
:1052d800fb8d800080d0bf000080fb00cf80de0007
:1052e8008ded07000001be000a00be00aded07000d
:1052f8000801be00be010700e08d8800f18d88001e
:10530800e48d8000f58d8000c08d8000d18d8000f7
:1053180018c0b3000001be000400be0040ed070045
:105328000000e00001003c000044eb000804e0003d
:105338000f003200c88d8000d98d8000ea8d800072
:10534800fb8d800080d0bf000080fb00cf80de0096
:1053580071ed07000001be000a00be0088ed0700dd
:105368000801be0088010700e08d8800f18d8800e3
:10537800e08d8000f18d800018c0b3006011b80086
:1053880027ed07000000e00001003c000044eb00ae
:105398000804e0000400320023cca90015eea800a0
:1053a80023eca8000300370023eca90015cea800c1
:1053b80023cca800e08d8000f18d80005c010700ff
:1053c80002002000032224003aef070037ed07000f
:1053d80000007800306188004f05be004f04be0011
:1053e8000080fa00000006000600fa00008fbe00e8
:1053f80064004700024878006400470010407800c5
:105408000004e00005003a001e0178009e019000ab
:10541800c28d8800d38d8800040037001e017800f3
:105428009e019000028e8800138e88000080fa008a
:04543800000006006a
:020000040000fa
:10543c00581000000c0000008000000080100000dc
:10544c00020000008200000001000000b611000004
:10545c00ae0000008000000070100000060000008c
:10546c00800000000614000008000000820000000c
:10547c00426f6e006a6f750072000000fc13000032
:10548c000a0000008000000044100000140000001e
:10549c0080000000fc120000800000008000000072
:1054ac007610000006000000800000007c13000055
:1054bc0080000000800000007c1000000400000050
:1054cc0080000000641200009800000080000000c2
:1054dc0082100000020000008200000001000000a9
:1054ec00281000001c0000008000000000100000cc
:1054fc002800000080000000641000000c00000078
:10550c0080000000841000000200000080000000f9
:10551c00861000003001000082000000030004002f
:10552c000004000006008300f9a20000444e6e0047
:10553c0000fc29001500d10057270000dd34f500d0
:10554c000062db00c0003c009995000041904300d4
:10555c0000635100fe00bb00deab0000b761c5006c
:10556c00003a6e002400d2004d4200004906e000d3
:10557c000009ea002e001c0092d10000eb1dfe0079
:10558c000029b1001c00e8003ea70000f5358200a0
:10559c000044bb002e009c00e9840000b42670007f
:1055ac0000417e005f00d600913900005383390022
:1055bc00009cf40039008b005f84000028f9bd00ca
:1055cc0000f81f003b00de00ff9700000f9805005d
:1055dc0000112f00ef000a005a8b00006d1f6d00a8
:1055ec0000cf7e0036000900cb270000464fb700e5
:1055fc00009e66003f002d00ea5f0000ba27750090
:10560c0000e5eb00c7003d007bf10000f739070017
:10561c00009252008a00fb006bea00001fb15f0091
:10562c0000085d008d003000035600007bfc460036
:10563c0000f0ab006b002000bccf000036f49a00e9
:10564c0000e3a9001d005e0061910000081be6004c
:10565c00008599006500a000145f00008d40680073
:10566c000080d800ff002700734d000006063100b3
:10567c0000ca56001500c900a87300007be2600048
:10568c00006b8c00c000da000fc93f006821a2003b
